{
  "_format": "hh-sol-artifact-1",
  "contractName": "SimpleMintPass",
  "sourceName": "contracts/SimpleMintPass.sol",
  "abi": [
    {
      "inputs": [],
      "stateMutability": "nonpayable",
      "type": "constructor"
    },
    {
      "anonymous": false,
      "inputs": [
        {
          "indexed": true,
          "internalType": "address",
          "name": "owner",
          "type": "address"
        },
        {
          "indexed": true,
          "internalType": "address",
          "name": "approved",
          "type": "address"
        },
        {
          "indexed": true,
          "internalType": "uint256",
          "name": "tokenId",
          "type": "uint256"
        }
      ],
      "name": "Approval",
      "type": "event"
    },
    {
      "anonymous": false,
      "inputs": [
        {
          "indexed": true,
          "internalType": "address",
          "name": "owner",
          "type": "address"
        },
        {
          "indexed": true,
          "internalType": "address",
          "name": "operator",
          "type": "address"
        },
        {
          "indexed": false,
          "internalType": "bool",
          "name": "approved",
          "type": "bool"
        }
      ],
      "name": "ApprovalForAll",
      "type": "event"
    },
    {
      "anonymous": false,
      "inputs": [
        {
          "indexed": true,
          "internalType": "address",
          "name": "from",
          "type": "address"
        },
        {
          "indexed": true,
          "internalType": "address",
          "name": "to",
          "type": "address"
        },
        {
          "indexed": true,
          "internalType": "uint256",
          "name": "tokenId",
          "type": "uint256"
        }
      ],
      "name": "Transfer",
      "type": "event"
    },
    {
      "inputs": [
        {
          "internalType": "address[]",
          "name": "_to",
          "type": "address[]"
        },
        {
          "internalType": "uint256[]",
          "name": "_value",
          "type": "uint256[]"
        },
        {
          "internalType": "uint256",
          "name": "categoryId",
          "type": "uint256"
        }
      ],
      "name": "airdrop",
      "outputs": [],
      "stateMutability": "nonpayable",
      "type": "function"
    },
    {
      "inputs": [
        {
          "internalType": "address",
          "name": "to",
          "type": "address"
        },
        {
          "internalType": "uint256",
          "name": "tokenId",
          "type": "uint256"
        }
      ],
      "name": "approve",
      "outputs": [],
      "stateMutability": "nonpayable",
      "type": "function"
    },
    {
      "inputs": [
        {
          "internalType": "address",
          "name": "owner",
          "type": "address"
        }
      ],
      "name": "balanceOf",
      "outputs": [
        {
          "internalType": "uint256",
          "name": "",
          "type": "uint256"
        }
      ],
      "stateMutability": "view",
      "type": "function"
    },
    {
      "inputs": [
        {
          "internalType": "address",
          "name": "",
          "type": "address"
        }
      ],
      "name": "blacklist",
      "outputs": [
        {
          "internalType": "uint256",
          "name": "",
          "type": "uint256"
        }
      ],
      "stateMutability": "view",
      "type": "function"
    },
    {
      "inputs": [
        {
          "internalType": "address",
          "name": "user",
          "type": "address"
        }
      ],
      "name": "blockUser",
      "outputs": [],
      "stateMutability": "nonpayable",
      "type": "function"
    },
    {
      "inputs": [
        {
          "internalType": "uint256",
          "name": "tokenId",
          "type": "uint256"
        }
      ],
      "name": "burn",
      "outputs": [],
      "stateMutability": "nonpayable",
      "type": "function"
    },
    {
      "inputs": [
        {
          "internalType": "uint256",
          "name": "",
          "type": "uint256"
        }
      ],
      "name": "category",
      "outputs": [
        {
          "internalType": "uint256",
          "name": "",
          "type": "uint256"
        }
      ],
      "stateMutability": "view",
      "type": "function"
    },
    {
      "inputs": [
        {
          "internalType": "uint256",
          "name": "",
          "type": "uint256"
        }
      ],
      "name": "categoryDetails",
      "outputs": [
        {
          "internalType": "uint256",
          "name": "id",
          "type": "uint256"
        },
        {
          "internalType": "string",
          "name": "uri",
          "type": "string"
        },
        {
          "internalType": "int256",
          "name": "price",
          "type": "int256"
        }
      ],
      "stateMutability": "view",
      "type": "function"
    },
    {
      "inputs": [],
      "name": "contractOwner",
      "outputs": [
        {
          "internalType": "address",
          "name": "",
          "type": "address"
        }
      ],
      "stateMutability": "view",
      "type": "function"
    },
    {
      "inputs": [
        {
          "internalType": "uint256",
          "name": "tokenId",
          "type": "uint256"
        }
      ],
      "name": "getApproved",
      "outputs": [
        {
          "internalType": "address",
          "name": "",
          "type": "address"
        }
      ],
      "stateMutability": "view",
      "type": "function"
    },
    {
      "inputs": [],
      "name": "getETHLatestPrice",
      "outputs": [
        {
          "internalType": "int256",
          "name": "",
          "type": "int256"
        }
      ],
      "stateMutability": "view",
      "type": "function"
    },
    {
      "inputs": [
        {
          "internalType": "uint256",
          "name": "tokenId",
          "type": "uint256"
        }
      ],
      "name": "getTokenPrice",
      "outputs": [
        {
          "internalType": "uint256",
          "name": "",
          "type": "uint256"
        }
      ],
      "stateMutability": "view",
      "type": "function"
    },
    {
      "inputs": [
        {
          "internalType": "address",
          "name": "owner",
          "type": "address"
        },
        {
          "internalType": "address",
          "name": "operator",
          "type": "address"
        }
      ],
      "name": "isApprovedForAll",
      "outputs": [
        {
          "internalType": "bool",
          "name": "",
          "type": "bool"
        }
      ],
      "stateMutability": "view",
      "type": "function"
    },
    {
      "inputs": [
        {
          "internalType": "address",
          "name": "user",
          "type": "address"
        }
      ],
      "name": "isOwner",
      "outputs": [
        {
          "internalType": "bool",
          "name": "",
          "type": "bool"
        }
      ],
      "stateMutability": "view",
      "type": "function"
    },
    {
      "inputs": [],
      "name": "name",
      "outputs": [
        {
          "internalType": "string",
          "name": "",
          "type": "string"
        }
      ],
      "stateMutability": "view",
      "type": "function"
    },
    {
      "inputs": [
        {
          "internalType": "uint256",
          "name": "tokenId",
          "type": "uint256"
        }
      ],
      "name": "ownerOf",
      "outputs": [
        {
          "internalType": "address",
          "name": "",
          "type": "address"
        }
      ],
      "stateMutability": "view",
      "type": "function"
    },
    {
      "inputs": [],
      "name": "projectLimit",
      "outputs": [
        {
          "internalType": "uint256",
          "name": "",
          "type": "uint256"
        }
      ],
      "stateMutability": "view",
      "type": "function"
    },
    {
      "inputs": [
        {
          "internalType": "uint256",
          "name": "",
          "type": "uint256"
        }
      ],
      "name": "projectMints",
      "outputs": [
        {
          "internalType": "uint256",
          "name": "",
          "type": "uint256"
        }
      ],
      "stateMutability": "view",
      "type": "function"
    },
    {
      "inputs": [
        {
          "internalType": "address",
          "name": "from",
          "type": "address"
        },
        {
          "internalType": "address",
          "name": "to",
          "type": "address"
        },
        {
          "internalType": "uint256",
          "name": "tokenId",
          "type": "uint256"
        }
      ],
      "name": "safeTransferFrom",
      "outputs": [],
      "stateMutability": "nonpayable",
      "type": "function"
    },
    {
      "inputs": [
        {
          "internalType": "address",
          "name": "from",
          "type": "address"
        },
        {
          "internalType": "address",
          "name": "to",
          "type": "address"
        },
        {
          "internalType": "uint256",
          "name": "tokenId",
          "type": "uint256"
        },
        {
          "internalType": "bytes",
          "name": "_data",
          "type": "bytes"
        }
      ],
      "name": "safeTransferFrom",
      "outputs": [],
      "stateMutability": "nonpayable",
      "type": "function"
    },
    {
      "inputs": [
        {
          "internalType": "address",
          "name": "operator",
          "type": "address"
        },
        {
          "internalType": "bool",
          "name": "approved",
          "type": "bool"
        }
      ],
      "name": "setApprovalForAll",
      "outputs": [],
      "stateMutability": "nonpayable",
      "type": "function"
    },
    {
      "inputs": [
        {
          "internalType": "string",
          "name": "tokenURI",
          "type": "string"
        },
        {
          "internalType": "uint256",
          "name": "categoryId",
          "type": "uint256"
        }
      ],
      "name": "setCategoryUri",
      "outputs": [],
      "stateMutability": "nonpayable",
      "type": "function"
    },
    {
      "inputs": [
        {
          "internalType": "int256",
          "name": "silverPrice",
          "type": "int256"
        },
        {
          "internalType": "int256",
          "name": "goldPrice",
          "type": "int256"
        },
        {
          "internalType": "int256",
          "name": "platinumPrice",
          "type": "int256"
        }
      ],
      "name": "setPrice",
      "outputs": [],
      "stateMutability": "nonpayable",
      "type": "function"
    },
    {
      "inputs": [
        {
          "internalType": "string",
          "name": "tokenURI",
          "type": "string"
        },
        {
          "internalType": "uint256",
          "name": "tokenId",
          "type": "uint256"
        }
      ],
      "name": "setUri",
      "outputs": [],
      "stateMutability": "nonpayable",
      "type": "function"
    },
    {
      "inputs": [
        {
          "internalType": "bytes4",
          "name": "interfaceId",
          "type": "bytes4"
        }
      ],
      "name": "supportsInterface",
      "outputs": [
        {
          "internalType": "bool",
          "name": "",
          "type": "bool"
        }
      ],
      "stateMutability": "view",
      "type": "function"
    },
    {
      "inputs": [],
      "name": "symbol",
      "outputs": [
        {
          "internalType": "string",
          "name": "",
          "type": "string"
        }
      ],
      "stateMutability": "view",
      "type": "function"
    },
    {
      "inputs": [],
      "name": "tokenCount",
      "outputs": [
        {
          "internalType": "uint256",
          "name": "",
          "type": "uint256"
        }
      ],
      "stateMutability": "view",
      "type": "function"
    },
    {
      "inputs": [
        {
          "internalType": "uint256",
          "name": "tokenId",
          "type": "uint256"
        }
      ],
      "name": "tokenURI",
      "outputs": [
        {
          "internalType": "string",
          "name": "",
          "type": "string"
        }
      ],
      "stateMutability": "view",
      "type": "function"
    },
    {
      "inputs": [
        {
          "internalType": "address",
          "name": "sender",
          "type": "address"
        },
        {
          "internalType": "address",
          "name": "recipient",
          "type": "address"
        },
        {
          "internalType": "uint256",
          "name": "passId",
          "type": "uint256"
        }
      ],
      "name": "transferFrom",
      "outputs": [],
      "stateMutability": "nonpayable",
      "type": "function"
    },
    {
      "inputs": [
        {
          "internalType": "address",
          "name": "owner",
          "type": "address"
        }
      ],
      "name": "transferOwnership",
      "outputs": [],
      "stateMutability": "nonpayable",
      "type": "function"
    },
    {
      "inputs": [
        {
          "internalType": "uint256",
          "name": "limit",
          "type": "uint256"
        }
      ],
      "name": "updateMintingLimit",
      "outputs": [],
      "stateMutability": "nonpayable",
      "type": "function"
    },
    {
      "inputs": [
        {
          "internalType": "address",
          "name": "",
          "type": "address"
        }
      ],
      "name": "userAddr",
      "outputs": [
        {
          "internalType": "bool",
          "name": "",
          "type": "bool"
        }
      ],
      "stateMutability": "view",
      "type": "function"
    },
    {
      "inputs": [
        {
          "internalType": "uint256",
          "name": "amount",
          "type": "uint256"
        }
      ],
      "name": "withdraw",
      "outputs": [],
      "stateMutability": "nonpayable",
      "type": "function"
    },
    {
      "stateMutability": "payable",
      "type": "receive"
    }
  ],
  "bytecode": "0x608060405260646008553480156200001657600080fd5b506040518060400160405280600681526020017f53696d706c6500000000000000000000000000000000000000000000000000008152506040518060400160405280600381526020017f534d50000000000000000000000000000000000000000000000000000000000081525081600090805190602001906200009b929190620002d6565b508060019080519060200190620000b4929190620002d6565b505050739326bfa02add2366b30bacb125260af641031331600760006101000a81548173ffffffffffffffffffffffffffffffffffffffff021916908373ffffffffffffffffffffffffffffffffffffffff16021790555033600a60006101000a81548173ffffffffffffffffffffffffffffffffffffffff021916908373ffffffffffffffffffffffffffffffffffffffff160217905550604051806060016040528060018152602001604051806080016040528060508152602001620056ab6050913981526020016101f4815250600b600060018152602001908152602001600020600082015181600001556020820151816001019080519060200190620001c0929190620002d6565b50604082015181600201559050506040518060600160405280600281526020016040518060800160405280605081526020016200560b6050913981526020016103e8815250600b60006002815260200190815260200160002060008201518160000155602082015181600101908051906020019062000241929190620002d6565b50604082015181600201559050506040518060600160405280600381526020016040518060800160405280605081526020016200565b6050913981526020016107d0815250600b600060038152602001908152602001600020600082015181600001556020820151816001019080519060200190620002c2929190620002d6565b5060408201518160020155905050620003eb565b828054620002e49062000386565b90600052602060002090601f01602090048101928262000308576000855562000354565b82601f106200032357805160ff191683800117855562000354565b8280016001018555821562000354579182015b828111156200035357825182559160200191906001019062000336565b5b50905062000363919062000367565b5090565b5b808211156200038257600081600090555060010162000368565b5090565b600060028204905060018216806200039f57607f821691505b60208210811415620003b657620003b5620003bc565b5b50919050565b7f4e487b7100000000000000000000000000000000000000000000000000000000600052602260045260246000fd5b61521080620003fb6000396000f3fe6080604052600436106101f25760003560e01c806348a18e2a1161010d578063b88d4fde116100a0578063ce606ee01161006f578063ce606ee014610eef578063df78c8d114610f1a578063e985e9c514610f45578063f2fde38b14610f82578063f9f92be414610fab57610988565b8063b88d4fde14610e0f578063c457fb3714610e38578063c7a8bbe714610e75578063c87b56dd14610eb257610988565b806394e99256116100dc57806394e9925614610d6557806395d89b4114610d905780639f181b5e14610dbb578063a22cb46514610de657610988565b806348a18e2a14610c855780636352211e14610cc257806370a0823114610cff578063731186eb14610d3c57610988565b80632e1a7d4d116101855780633da01325116101545780633da0132514610be157806342842e0e14610c0a57806342966c6814610c33578063459b059614610c5c57610988565b80632e1a7d4d14610b295780632f54bf6e14610b5257806332748fd014610b8f578063363da98e14610bb857610988565b80631056b636116101c15780631056b63614610a5b5780631fae28b714610a8457806323b872dd14610ac3578063253eca1f14610aec57610988565b806301ffc9a71461098d57806306fdde03146109ca578063081812fc146109f5578063095ea7b314610a3257610988565b366109885760006102036001610fe8565b34148061021857506102156002610fe8565b34145b8061022b57506102286003610fe8565b34145b61026a576040517f08c379a0000000000000000000000000000000000000000000000000000000008152600401610261906144dc565b60405180910390fd5b6102746001610fe8565b3414156104c957600190506000600c600083815260200190815260200160002054905060085481106102db576040517f08c379a00000000000000000000000000000000000000000000000000000000081526004016102d29061445c565b60405180910390fd5b600f60003373ffffffffffffffffffffffffffffffffffffffff1673ffffffffffffffffffffffffffffffffffffffff16815260200190815260200160002054421161035c576040517f08c379a0000000000000000000000000000000000000000000000000000000008152600401610353906143fc565b60405180910390fd5b808061036790614a6c565b9150506009600081548092919061037d90614a6c565b91905055506001600e60003373ffffffffffffffffffffffffffffffffffffffff1673ffffffffffffffffffffffffffffffffffffffff16815260200190815260200160002060006101000a81548160ff0219169083151502179055506103e63360095461107b565b610490600954600b6000858152602001908152602001600020600101805461040d90614a09565b80601f016020809104026020016040519081016040528092919081815260200182805461043990614a09565b80156104865780601f1061045b57610100808354040283529160200191610486565b820191906000526020600020905b81548152906001019060200180831161046957829003601f168201915b5050505050611255565b80600c6000848152602001908152602001600020819055506001600d600060095481526020019081526020016000208190555050610985565b6104d36002610fe8565b34141561072857600290506000600c6000838152602001908152602001600020549050600854811061053a576040517f08c379a00000000000000000000000000000000000000000000000000000000081526004016105319061445c565b60405180910390fd5b600f60003373ffffffffffffffffffffffffffffffffffffffff1673ffffffffffffffffffffffffffffffffffffffff1681526020019081526020016000205442116105bb576040517f08c379a00000000000000000000000000000000000000000000000000000000081526004016105b2906143fc565b60405180910390fd5b600960008154809291906105ce90614a6c565b91905055506001600e60003373ffffffffffffffffffffffffffffffffffffffff1673ffffffffffffffffffffffffffffffffffffffff16815260200190815260200160002060006101000a81548160ff021916908315150217905550808061063690614a6c565b9150506106453360095461107b565b6106ef600954600b6000858152602001908152602001600020600101805461066c90614a09565b80601f016020809104026020016040519081016040528092919081815260200182805461069890614a09565b80156106e55780601f106106ba576101008083540402835291602001916106e5565b820191906000526020600020905b8154815290600101906020018083116106c857829003601f168201915b5050505050611255565b80600c6000848152602001908152602001600020819055506002600d600060095481526020019081526020016000208190555050610984565b6107326003610fe8565b34141561098357600390506000600c60008381526020019081526020016000205490506008548110610799576040517f08c379a00000000000000000000000000000000000000000000000000000000081526004016107909061445c565b60405180910390fd5b600f60003373ffffffffffffffffffffffffffffffffffffffff1673ffffffffffffffffffffffffffffffffffffffff16815260200190815260200160002054421161081a576040517f08c379a0000000000000000000000000000000000000000000000000000000008152600401610811906143fc565b60405180910390fd5b6009600081548092919061082d90614a6c565b91905055506001600e60003373ffffffffffffffffffffffffffffffffffffffff1673ffffffffffffffffffffffffffffffffffffffff16815260200190815260200160002060006101000a81548160ff021916908315150217905550808061089590614a6c565b9150506108a43360095461107b565b61094e600954600b600085815260200190815260200160002060010180546108cb90614a09565b80601f01602080910402602001604051908101604052809291908181526020018280546108f790614a09565b80156109445780601f1061091957610100808354040283529160200191610944565b820191906000526020600020905b81548152906001019060200180831161092757829003601f168201915b5050505050611255565b80600c6000848152602001908152602001600020819055506003600d6000600954815260200190815260200160002081905550505b5b5b50005b600080fd5b34801561099957600080fd5b506109b460048036038101906109af9190613bf7565b6112c9565b6040516109c19190614244565b60405180910390f35b3480156109d657600080fd5b506109df6113ab565b6040516109ec919061427a565b60405180910390f35b348015610a0157600080fd5b50610a1c6004803603810190610a179190613cec565b61143d565b604051610a2991906141dd565b60405180910390f35b348015610a3e57600080fd5b50610a596004803603810190610a549190613b3c565b6114c2565b005b348015610a6757600080fd5b50610a826004803603810190610a7d9190613c98565b6115da565b005b348015610a9057600080fd5b50610aab6004803603810190610aa69190613cec565b611699565b604051610aba93929190614597565b60405180910390f35b348015610acf57600080fd5b50610aea6004803603810190610ae59190613a36565b61174b565b005b348015610af857600080fd5b50610b136004803603810190610b0e9190613cec565b611987565b604051610b20919061457c565b60405180910390f35b348015610b3557600080fd5b50610b506004803603810190610b4b9190613cec565b61199f565b005b348015610b5e57600080fd5b50610b796004803603810190610b7491906139d1565b611a0b565b604051610b869190614244565b60405180910390f35b348015610b9b57600080fd5b50610bb66004803603810190610bb19190613c98565b611a76565b005b348015610bc457600080fd5b50610bdf6004803603810190610bda9190613cec565b611b14565b005b348015610bed57600080fd5b50610c086004803603810190610c0391906139d1565b611bae565b005b348015610c1657600080fd5b50610c316004803603810190610c2c9190613a36565b611c93565b005b348015610c3f57600080fd5b50610c5a6004803603810190610c559190613cec565b611cb3565b005b348015610c6857600080fd5b50610c836004803603810190610c7e9190613c49565b611d4f565b005b348015610c9157600080fd5b50610cac6004803603810190610ca79190613cec565b611e38565b604051610cb9919061457c565b60405180910390f35b348015610cce57600080fd5b50610ce96004803603810190610ce49190613cec565b611e50565b604051610cf691906141dd565b60405180910390f35b348015610d0b57600080fd5b50610d266004803603810190610d2191906139d1565b611f02565b604051610d33919061457c565b60405180910390f35b348015610d4857600080fd5b50610d636004803603810190610d5e9190613b78565b611fba565b005b348015610d7157600080fd5b50610d7a612466565b604051610d87919061425f565b60405180910390f35b348015610d9c57600080fd5b50610da5612516565b604051610db2919061427a565b60405180910390f35b348015610dc757600080fd5b50610dd06125a8565b604051610ddd919061457c565b60405180910390f35b348015610df257600080fd5b50610e0d6004803603810190610e089190613b00565b6125ae565b005b348015610e1b57600080fd5b50610e366004803603810190610e319190613a85565b6125c4565b005b348015610e4457600080fd5b50610e5f6004803603810190610e5a9190613cec565b610fe8565b604051610e6c919061457c565b60405180910390f35b348015610e8157600080fd5b50610e9c6004803603810190610e9791906139d1565b612626565b604051610ea99190614244565b60405180910390f35b348015610ebe57600080fd5b50610ed96004803603810190610ed49190613cec565b612646565b604051610ee6919061427a565b60405180910390f35b348015610efb57600080fd5b50610f04612798565b604051610f1191906141dd565b60405180910390f35b348015610f2657600080fd5b50610f2f6127be565b604051610f3c919061457c565b60405180910390f35b348015610f5157600080fd5b50610f6c6004803603810190610f6791906139fa565b6127c4565b604051610f799190614244565b60405180910390f35b348015610f8e57600080fd5b50610fa96004803603810190610fa491906139d1565b612858565b005b348015610fb757600080fd5b50610fd26004803603810190610fcd91906139d1565b61292c565b604051610fdf919061457c565b60405180910390f35b600080670de0b6b3a7640000600b60008581526020019081526020016000206002015461101591906147e8565b90506000670de0b6b3a76400006305f5e10061102f612466565b61103991906147e8565b61104391906147e8565b9050600081670de0b6b3a76400008461105c91906147e8565b611066919061474d565b905061107181612944565b9350505050919050565b600073ffffffffffffffffffffffffffffffffffffffff168273ffffffffffffffffffffffffffffffffffffffff1614156110eb576040517f08c379a00000000000000000000000000000000000000000000000000000000081526004016110e29061443c565b60405180910390fd5b6110f481612991565b15611134576040517f08c379a000000000000000000000000000000000000000000000000000000000815260040161112b906142dc565b60405180910390fd5b611140600083836129fd565b6001600360008473ffffffffffffffffffffffffffffffffffffffff1673ffffffffffffffffffffffffffffffffffffffff168152602001908152602001600020600082825461119091906146f7565b92505081905550816002600083815260200190815260200160002060006101000a81548173ffffffffffffffffffffffffffffffffffffffff021916908373ffffffffffffffffffffffffffffffffffffffff160217905550808273ffffffffffffffffffffffffffffffffffffffff16600073ffffffffffffffffffffffffffffffffffffffff167fddf252ad1be2c89b69c2b068fc378daa952ba7f163c4a11628f55a4df523b3ef60405160405180910390a461125160008383612a02565b5050565b61125e82612991565b61129d576040517f08c379a0000000000000000000000000000000000000000000000000000000008152600401611294906143dc565b60405180910390fd5b806006600084815260200190815260200160002090805190602001906112c4929190613635565b505050565b60007f80ac58cd000000000000000000000000000000000000000000000000000000007bffffffffffffffffffffffffffffffffffffffffffffffffffffffff1916827bffffffffffffffffffffffffffffffffffffffffffffffffffffffff1916148061139457507f5b5e139f000000000000000000000000000000000000000000000000000000007bffffffffffffffffffffffffffffffffffffffffffffffffffffffff1916827bffffffffffffffffffffffffffffffffffffffffffffffffffffffff1916145b806113a457506113a382612a07565b5b9050919050565b6060600080546113ba90614a09565b80601f01602080910402602001604051908101604052809291908181526020018280546113e690614a09565b80156114335780601f1061140857610100808354040283529160200191611433565b820191906000526020600020905b81548152906001019060200180831161141657829003601f168201915b5050505050905090565b600061144882612991565b611487576040517f08c379a000000000000000000000000000000000000000000000000000000000815260040161147e9061449c565b60405180910390fd5b6004600083815260200190815260200160002060009054906101000a900473ffffffffffffffffffffffffffffffffffffffff169050919050565b60006114cd82611e50565b90508073ffffffffffffffffffffffffffffffffffffffff168373ffffffffffffffffffffffffffffffffffffffff16141561153e576040517f08c379a0000000000000000000000000000000000000000000000000000000008152600401611535906144fc565b60405180910390fd5b8073ffffffffffffffffffffffffffffffffffffffff1661155d612a71565b73ffffffffffffffffffffffffffffffffffffffff16148061158c575061158b81611586612a71565b6127c4565b5b6115cb576040517f08c379a00000000000000000000000000000000000000000000000000000000081526004016115c29061435c565b60405180910390fd5b6115d58383612a79565b505050565b600a60009054906101000a900473ffffffffffffffffffffffffffffffffffffffff1673ffffffffffffffffffffffffffffffffffffffff163373ffffffffffffffffffffffffffffffffffffffff161461166a576040517f08c379a00000000000000000000000000000000000000000000000000000000081526004016116619061441c565b60405180910390fd5b81600b60008381526020019081526020016000206001019080519060200190611694929190613635565b505050565b600b6020528060005260406000206000915090508060000154908060010180546116c290614a09565b80601f01602080910402602001604051908101604052809291908181526020018280546116ee90614a09565b801561173b5780601f106117105761010080835404028352916020019161173b565b820191906000526020600020905b81548152906001019060200180831161171e57829003601f168201915b5050505050908060020154905083565b600f60003373ffffffffffffffffffffffffffffffffffffffff1673ffffffffffffffffffffffffffffffffffffffff1681526020019081526020016000205442116117cc576040517f08c379a00000000000000000000000000000000000000000000000000000000081526004016117c3906143fc565b60405180910390fd5b60011515600e60008573ffffffffffffffffffffffffffffffffffffffff1673ffffffffffffffffffffffffffffffffffffffff16815260200190815260200160002060009054906101000a900460ff1615151415611976576001600e60008473ffffffffffffffffffffffffffffffffffffffff1673ffffffffffffffffffffffffffffffffffffffff16815260200190815260200160002060006101000a81548160ff021916908315150217905550611888838383612b32565b60003073ffffffffffffffffffffffffffffffffffffffff166370a08231856040518263ffffffff1660e01b81526004016118c391906141dd565b60206040518083038186803b1580156118db57600080fd5b505afa1580156118ef573d6000803e3d6000fd5b505050506040513d601f19601f820116820180604052508101906119139190613d15565b11611971576000600e60008573ffffffffffffffffffffffffffffffffffffffff1673ffffffffffffffffffffffffffffffffffffffff16815260200190815260200160002060006101000a81548160ff0219169083151502179055505b611982565b611981838383612b32565b5b505050565b600d6020528060005260406000206000915090505481565b600a60009054906101000a900473ffffffffffffffffffffffffffffffffffffffff1673ffffffffffffffffffffffffffffffffffffffff166108fc829081150290604051600060405180830381858888f19350505050158015611a07573d6000803e3d6000fd5b5050565b6000600a60009054906101000a900473ffffffffffffffffffffffffffffffffffffffff1673ffffffffffffffffffffffffffffffffffffffff168273ffffffffffffffffffffffffffffffffffffffff161415611a6c5760019050611a71565b600090505b919050565b600a60009054906101000a900473ffffffffffffffffffffffffffffffffffffffff1673ffffffffffffffffffffffffffffffffffffffff163373ffffffffffffffffffffffffffffffffffffffff1614611b06576040517f08c379a0000000000000000000000000000000000000000000000000000000008152600401611afd9061441c565b60405180910390fd5b611b108183611255565b5050565b600a60009054906101000a900473ffffffffffffffffffffffffffffffffffffffff1673ffffffffffffffffffffffffffffffffffffffff163373ffffffffffffffffffffffffffffffffffffffff1614611ba4576040517f08c379a0000000000000000000000000000000000000000000000000000000008152600401611b9b9061441c565b60405180910390fd5b8060088190555050565b600a60009054906101000a900473ffffffffffffffffffffffffffffffffffffffff1673ffffffffffffffffffffffffffffffffffffffff163373ffffffffffffffffffffffffffffffffffffffff1614611c3e576040517f08c379a0000000000000000000000000000000000000000000000000000000008152600401611c359061441c565b60405180910390fd5b62093a8042611c4d91906146f7565b600f60008373ffffffffffffffffffffffffffffffffffffffff1673ffffffffffffffffffffffffffffffffffffffff1681526020019081526020016000208190555050565b611cae838383604051806020016040528060008152506125c4565b505050565b600a60009054906101000a900473ffffffffffffffffffffffffffffffffffffffff1673ffffffffffffffffffffffffffffffffffffffff163373ffffffffffffffffffffffffffffffffffffffff1614611d43576040517f08c379a0000000000000000000000000000000000000000000000000000000008152600401611d3a9061441c565b60405180910390fd5b611d4c81612b92565b50565b600a60009054906101000a900473ffffffffffffffffffffffffffffffffffffffff1673ffffffffffffffffffffffffffffffffffffffff163373ffffffffffffffffffffffffffffffffffffffff1614611ddf576040517f08c379a0000000000000000000000000000000000000000000000000000000008152600401611dd69061441c565b60405180910390fd5b82600b6000600181526020019081526020016000206002018190555081600b6000600281526020019081526020016000206002018190555080600b60006003815260200190815260200160002060020181905550505050565b600c6020528060005260406000206000915090505481565b6000806002600084815260200190815260200160002060009054906101000a900473ffffffffffffffffffffffffffffffffffffffff169050600073ffffffffffffffffffffffffffffffffffffffff168173ffffffffffffffffffffffffffffffffffffffff161415611ef9576040517f08c379a0000000000000000000000000000000000000000000000000000000008152600401611ef09061439c565b60405180910390fd5b80915050919050565b60008073ffffffffffffffffffffffffffffffffffffffff168273ffffffffffffffffffffffffffffffffffffffff161415611f73576040517f08c379a0000000000000000000000000000000000000000000000000000000008152600401611f6a9061437c565b60405180910390fd5b600360008373ffffffffffffffffffffffffffffffffffffffff1673ffffffffffffffffffffffffffffffffffffffff168152602001908152602001600020549050919050565b600a60009054906101000a900473ffffffffffffffffffffffffffffffffffffffff1673ffffffffffffffffffffffffffffffffffffffff163373ffffffffffffffffffffffffffffffffffffffff161461204a576040517f08c379a00000000000000000000000000000000000000000000000000000000081526004016120419061441c565b60405180910390fd5b815183511461205857600080fd5b60005b83518110156124605760005b8382815181106120a0577f4e487b7100000000000000000000000000000000000000000000000000000000600052603260045260246000fd5b602002602001015181101561244c576000600c6000858152602001908152602001600020549050600f6000878581518110612104577f4e487b7100000000000000000000000000000000000000000000000000000000600052603260045260246000fd5b602002602001015173ffffffffffffffffffffffffffffffffffffffff1673ffffffffffffffffffffffffffffffffffffffff168152602001908152602001600020544211612188576040517f08c379a000000000000000000000000000000000000000000000000000000000815260040161217f906143fc565b60405180910390fd5b600084116121cb576040517f08c379a00000000000000000000000000000000000000000000000000000000081526004016121c29061453c565b60405180910390fd5b6004841061220e576040517f08c379a00000000000000000000000000000000000000000000000000000000081526004016122059061453c565b60405180910390fd5b6008548110612252576040517f08c379a00000000000000000000000000000000000000000000000000000000081526004016122499061455c565b60405180910390fd5b808061225d90614a6c565b9150506009600081548092919061227390614a6c565b91905055506001600e60008886815181106122b7577f4e487b7100000000000000000000000000000000000000000000000000000000600052603260045260246000fd5b602002602001015173ffffffffffffffffffffffffffffffffffffffff1673ffffffffffffffffffffffffffffffffffffffff16815260200190815260200160002060006101000a81548160ff02191690831515021790555061235c86848151811061234c577f4e487b7100000000000000000000000000000000000000000000000000000000600052603260045260246000fd5b602002602001015160095461107b565b612406600954600b6000878152602001908152602001600020600101805461238390614a09565b80601f01602080910402602001604051908101604052809291908181526020018280546123af90614a09565b80156123fc5780601f106123d1576101008083540402835291602001916123fc565b820191906000526020600020905b8154815290600101906020018083116123df57829003601f168201915b5050505050611255565b80600c60008681526020019081526020016000208190555083600d600060095481526020019081526020016000208190555050808061244490614a6c565b915050612067565b50808061245890614a6c565b91505061205b565b50505050565b600080600760009054906101000a900473ffffffffffffffffffffffffffffffffffffffff1673ffffffffffffffffffffffffffffffffffffffff1663feaf968c6040518163ffffffff1660e01b815260040160a06040518083038186803b1580156124d157600080fd5b505afa1580156124e5573d6000803e3d6000fd5b505050506040513d601f19601f820116820180604052508101906125099190613d3e565b5050509150508091505090565b60606001805461252590614a09565b80601f016020809104026020016040519081016040528092919081815260200182805461255190614a09565b801561259e5780601f106125735761010080835404028352916020019161259e565b820191906000526020600020905b81548152906001019060200180831161258157829003601f168201915b5050505050905090565b60095481565b6125c06125b9612a71565b8383612be5565b5050565b6125d56125cf612a71565b83612d52565b612614576040517f08c379a000000000000000000000000000000000000000000000000000000000815260040161260b9061451c565b60405180910390fd5b61262084848484612e30565b50505050565b600e6020528060005260406000206000915054906101000a900460ff1681565b606061265182612991565b612690576040517f08c379a00000000000000000000000000000000000000000000000000000000081526004016126879061447c565b60405180910390fd5b60006006600084815260200190815260200160002080546126b090614a09565b80601f01602080910402602001604051908101604052809291908181526020018280546126dc90614a09565b80156127295780601f106126fe57610100808354040283529160200191612729565b820191906000526020600020905b81548152906001019060200180831161270c57829003601f168201915b50505050509050600061273a612e8c565b9050600081511415612750578192505050612793565b60008251111561278557808260405160200161276d9291906141b9565b60405160208183030381529060405292505050612793565b61278e84612ea3565b925050505b919050565b600a60009054906101000a900473ffffffffffffffffffffffffffffffffffffffff1681565b60085481565b6000600560008473ffffffffffffffffffffffffffffffffffffffff1673ffffffffffffffffffffffffffffffffffffffff16815260200190815260200160002060008373ffffffffffffffffffffffffffffffffffffffff1673ffffffffffffffffffffffffffffffffffffffff16815260200190815260200160002060009054906101000a900460ff16905092915050565b600a60009054906101000a900473ffffffffffffffffffffffffffffffffffffffff1673ffffffffffffffffffffffffffffffffffffffff163373ffffffffffffffffffffffffffffffffffffffff16146128e8576040517f08c379a00000000000000000000000000000000000000000000000000000000081526004016128df9061441c565b60405180910390fd5b80600a60006101000a81548173ffffffffffffffffffffffffffffffffffffffff021916908373ffffffffffffffffffffffffffffffffffffffff16021790555050565b600f6020528060005260406000206000915090505481565b600080821215612989576040517f08c379a0000000000000000000000000000000000000000000000000000000008152600401612980906143bc565b60405180910390fd5b819050919050565b60008073ffffffffffffffffffffffffffffffffffffffff166002600084815260200190815260200160002060009054906101000a900473ffffffffffffffffffffffffffffffffffffffff1673ffffffffffffffffffffffffffffffffffffffff1614159050919050565b505050565b505050565b60007f01ffc9a7000000000000000000000000000000000000000000000000000000007bffffffffffffffffffffffffffffffffffffffffffffffffffffffff1916827bffffffffffffffffffffffffffffffffffffffffffffffffffffffff1916149050919050565b600033905090565b816004600083815260200190815260200160002060006101000a81548173ffffffffffffffffffffffffffffffffffffffff021916908373ffffffffffffffffffffffffffffffffffffffff160217905550808273ffffffffffffffffffffffffffffffffffffffff16612aec83611e50565b73ffffffffffffffffffffffffffffffffffffffff167f8c5be1e5ebec7d5bd14f71427d1e84f3dd0314c0f7b2291e5b200ac8c7c3b92560405160405180910390a45050565b612b43612b3d612a71565b82612d52565b612b82576040517f08c379a0000000000000000000000000000000000000000000000000000000008152600401612b799061451c565b60405180910390fd5b612b8d838383612f4a565b505050565b612b9b816131b1565b6000600660008381526020019081526020016000208054612bbb90614a09565b905014612be257600660008281526020019081526020016000206000612be191906136bb565b5b50565b8173ffffffffffffffffffffffffffffffffffffffff168373ffffffffffffffffffffffffffffffffffffffff161415612c54576040517f08c379a0000000000000000000000000000000000000000000000000000000008152600401612c4b9061431c565b60405180910390fd5b80600560008573ffffffffffffffffffffffffffffffffffffffff1673ffffffffffffffffffffffffffffffffffffffff16815260200190815260200160002060008473ffffffffffffffffffffffffffffffffffffffff1673ffffffffffffffffffffffffffffffffffffffff16815260200190815260200160002060006101000a81548160ff0219169083151502179055508173ffffffffffffffffffffffffffffffffffffffff168373ffffffffffffffffffffffffffffffffffffffff167f17307eab39ab6107e8899845ad3d59bd9653f200f220920489ca2b5937696c3183604051612d459190614244565b60405180910390a3505050565b6000612d5d82612991565b612d9c576040517f08c379a0000000000000000000000000000000000000000000000000000000008152600401612d939061433c565b60405180910390fd5b6000612da783611e50565b90508073ffffffffffffffffffffffffffffffffffffffff168473ffffffffffffffffffffffffffffffffffffffff161480612de95750612de881856127c4565b5b80612e2757508373ffffffffffffffffffffffffffffffffffffffff16612e0f8461143d565b73ffffffffffffffffffffffffffffffffffffffff16145b91505092915050565b612e3b848484612f4a565b612e47848484846132ce565b612e86576040517f08c379a0000000000000000000000000000000000000000000000000000000008152600401612e7d9061429c565b60405180910390fd5b50505050565b606060405180602001604052806000815250905090565b6060612eae82612991565b612eed576040517f08c379a0000000000000000000000000000000000000000000000000000000008152600401612ee4906144bc565b60405180910390fd5b6000612ef7612e8c565b90506000815111612f175760405180602001604052806000815250612f42565b80612f2184613465565b604051602001612f329291906141b9565b6040516020818303038152906040525b915050919050565b8273ffffffffffffffffffffffffffffffffffffffff16612f6a82611e50565b73ffffffffffffffffffffffffffffffffffffffff1614612fc0576040517f08c379a0000000000000000000000000000000000000000000000000000000008152600401612fb7906142bc565b60405180910390fd5b600073ffffffffffffffffffffffffffffffffffffffff168273ffffffffffffffffffffffffffffffffffffffff161415613030576040517f08c379a0000000000000000000000000000000000000000000000000000000008152600401613027906142fc565b60405180910390fd5b61303b8383836129fd565b613046600082612a79565b6001600360008573ffffffffffffffffffffffffffffffffffffffff1673ffffffffffffffffffffffffffffffffffffffff168152602001908152602001600020600082825461309691906148ff565b925050819055506001600360008473ffffffffffffffffffffffffffffffffffffffff1673ffffffffffffffffffffffffffffffffffffffff16815260200190815260200160002060008282546130ed91906146f7565b92505081905550816002600083815260200190815260200160002060006101000a81548173ffffffffffffffffffffffffffffffffffffffff021916908373ffffffffffffffffffffffffffffffffffffffff160217905550808273ffffffffffffffffffffffffffffffffffffffff168473ffffffffffffffffffffffffffffffffffffffff167fddf252ad1be2c89b69c2b068fc378daa952ba7f163c4a11628f55a4df523b3ef60405160405180910390a46131ac838383612a02565b505050565b60006131bc82611e50565b90506131ca816000846129fd565b6131d5600083612a79565b6001600360008373ffffffffffffffffffffffffffffffffffffffff1673ffffffffffffffffffffffffffffffffffffffff168152602001908152602001600020600082825461322591906148ff565b925050819055506002600083815260200190815260200160002060006101000a81549073ffffffffffffffffffffffffffffffffffffffff021916905581600073ffffffffffffffffffffffffffffffffffffffff168273ffffffffffffffffffffffffffffffffffffffff167fddf252ad1be2c89b69c2b068fc378daa952ba7f163c4a11628f55a4df523b3ef60405160405180910390a46132ca81600084612a02565b5050565b60006132ef8473ffffffffffffffffffffffffffffffffffffffff16613612565b15613458578373ffffffffffffffffffffffffffffffffffffffff1663150b7a02613318612a71565b8786866040518563ffffffff1660e01b815260040161333a94939291906141f8565b602060405180830381600087803b15801561335457600080fd5b505af192505050801561338557506040513d601f19601f820116820180604052508101906133829190613c20565b60015b613408573d80600081146133b5576040519150601f19603f3d011682016040523d82523d6000602084013e6133ba565b606091505b50600081511415613400576040517f08c379a00000000000000000000000000000000000000000000000000000000081526004016133f79061429c565b60405180910390fd5b805181602001fd5b63150b7a0260e01b7bffffffffffffffffffffffffffffffffffffffffffffffffffffffff1916817bffffffffffffffffffffffffffffffffffffffffffffffffffffffff19161491505061345d565b600190505b949350505050565b606060008214156134ad576040518060400160405280600181526020017f3000000000000000000000000000000000000000000000000000000000000000815250905061360d565b600082905060005b600082146134df5780806134c890614a6c565b915050600a826134d891906147b7565b91506134b5565b60008167ffffffffffffffff811115613521577f4e487b7100000000000000000000000000000000000000000000000000000000600052604160045260246000fd5b6040519080825280601f01601f1916602001820160405280156135535781602001600182028036833780820191505090505b5090505b600085146136065760018261356c91906148ff565b9150600a8561357b9190614ab5565b603061358791906146f7565b60f81b8183815181106135c3577f4e487b7100000000000000000000000000000000000000000000000000000000600052603260045260246000fd5b60200101907effffffffffffffffffffffffffffffffffffffffffffffffffffffffffffff1916908160001a905350600a856135ff91906147b7565b9450613557565b8093505050505b919050565b6000808273ffffffffffffffffffffffffffffffffffffffff163b119050919050565b82805461364190614a09565b90600052602060002090601f01602090048101928261366357600085556136aa565b82601f1061367c57805160ff19168380011785556136aa565b828001600101855582156136aa579182015b828111156136a957825182559160200191906001019061368e565b5b5090506136b791906136fb565b5090565b5080546136c790614a09565b6000825580601f106136d957506136f8565b601f0160209004906000526020600020908101906136f791906136fb565b5b50565b5b808211156137145760008160009055506001016136fc565b5090565b600061372b613726846145fa565b6145d5565b9050808382526020820190508285602086028201111561374a57600080fd5b60005b8581101561377a5781613760888261386c565b84526020840193506020830192505060018101905061374d565b5050509392505050565b600061379761379284614626565b6145d5565b905080838252602082019050828560208602820111156137b657600080fd5b60005b858110156137e657816137cc8882613992565b8452602084019350602083019250506001810190506137b9565b5050509392505050565b60006138036137fe84614652565b6145d5565b90508281526020810184848401111561381b57600080fd5b6138268482856149c7565b509392505050565b600061384161383c84614683565b6145d5565b90508281526020810184848401111561385957600080fd5b6138648482856149c7565b509392505050565b60008135905061387b81615150565b92915050565b600082601f83011261389257600080fd5b81356138a2848260208601613718565b91505092915050565b600082601f8301126138bc57600080fd5b81356138cc848260208601613784565b91505092915050565b6000813590506138e481615167565b92915050565b6000813590506138f98161517e565b92915050565b60008151905061390e8161517e565b92915050565b600082601f83011261392557600080fd5b81356139358482602086016137f0565b91505092915050565b60008135905061394d81615195565b92915050565b60008151905061396281615195565b92915050565b600082601f83011261397957600080fd5b813561398984826020860161382e565b91505092915050565b6000813590506139a1816151ac565b92915050565b6000815190506139b6816151ac565b92915050565b6000815190506139cb816151c3565b92915050565b6000602082840312156139e357600080fd5b60006139f18482850161386c565b91505092915050565b60008060408385031215613a0d57600080fd5b6000613a1b8582860161386c565b9250506020613a2c8582860161386c565b9150509250929050565b600080600060608486031215613a4b57600080fd5b6000613a598682870161386c565b9350506020613a6a8682870161386c565b9250506040613a7b86828701613992565b9150509250925092565b60008060008060808587031215613a9b57600080fd5b6000613aa98782880161386c565b9450506020613aba8782880161386c565b9350506040613acb87828801613992565b925050606085013567ffffffffffffffff811115613ae857600080fd5b613af487828801613914565b91505092959194509250565b60008060408385031215613b1357600080fd5b6000613b218582860161386c565b9250506020613b32858286016138d5565b9150509250929050565b60008060408385031215613b4f57600080fd5b6000613b5d8582860161386c565b9250506020613b6e85828601613992565b9150509250929050565b600080600060608486031215613b8d57600080fd5b600084013567ffffffffffffffff811115613ba757600080fd5b613bb386828701613881565b935050602084013567ffffffffffffffff811115613bd057600080fd5b613bdc868287016138ab565b9250506040613bed86828701613992565b9150509250925092565b600060208284031215613c0957600080fd5b6000613c17848285016138ea565b91505092915050565b600060208284031215613c3257600080fd5b6000613c40848285016138ff565b91505092915050565b600080600060608486031215613c5e57600080fd5b6000613c6c8682870161393e565b9350506020613c7d8682870161393e565b9250506040613c8e8682870161393e565b9150509250925092565b60008060408385031215613cab57600080fd5b600083013567ffffffffffffffff811115613cc557600080fd5b613cd185828601613968565b9250506020613ce285828601613992565b9150509250929050565b600060208284031215613cfe57600080fd5b6000613d0c84828501613992565b91505092915050565b600060208284031215613d2757600080fd5b6000613d35848285016139a7565b91505092915050565b600080600080600060a08688031215613d5657600080fd5b6000613d64888289016139bc565b9550506020613d7588828901613953565b9450506040613d86888289016139a7565b9350506060613d97888289016139a7565b9250506080613da8888289016139bc565b9150509295509295909350565b613dbe81614933565b82525050565b613dcd81614945565b82525050565b6000613dde826146b4565b613de881856146ca565b9350613df88185602086016149d6565b613e0181614ba2565b840191505092915050565b613e158161497d565b82525050565b6000613e26826146bf565b613e3081856146db565b9350613e408185602086016149d6565b613e4981614ba2565b840191505092915050565b6000613e5f826146bf565b613e6981856146ec565b9350613e798185602086016149d6565b80840191505092915050565b6000613e926032836146db565b9150613e9d82614bb3565b604082019050919050565b6000613eb56025836146db565b9150613ec082614c02565b604082019050919050565b6000613ed8601c836146db565b9150613ee382614c51565b602082019050919050565b6000613efb6024836146db565b9150613f0682614c7a565b604082019050919050565b6000613f1e6019836146db565b9150613f2982614cc9565b602082019050919050565b6000613f41602c836146db565b9150613f4c82614cf2565b604082019050919050565b6000613f646038836146db565b9150613f6f82614d41565b604082019050919050565b6000613f87602a836146db565b9150613f9282614d90565b604082019050919050565b6000613faa6029836146db565b9150613fb582614ddf565b604082019050919050565b6000613fcd6020836146db565b9150613fd882614e2e565b602082019050919050565b6000613ff0602e836146db565b9150613ffb82614e57565b604082019050919050565b60006140136010836146db565b915061401e82614ea6565b602082019050919050565b60006140366012836146db565b915061404182614ecf565b602082019050919050565b60006140596020836146db565b915061406482614ef8565b602082019050919050565b600061407c6018836146db565b915061408782614f21565b602082019050919050565b600061409f6031836146db565b91506140aa82614f4a565b604082019050919050565b60006140c2602c836146db565b91506140cd82614f99565b604082019050919050565b60006140e5602f836146db565b91506140f082614fe8565b604082019050919050565b60006141086011836146db565b915061411382615037565b602082019050919050565b600061412b6021836146db565b915061413682615060565b604082019050919050565b600061414e6031836146db565b9150614159826150af565b604082019050919050565b6000614171600e836146db565b915061417c826150fe565b602082019050919050565b6000614194601b836146db565b915061419f82615127565b602082019050919050565b6141b3816149a7565b82525050565b60006141c58285613e54565b91506141d18284613e54565b91508190509392505050565b60006020820190506141f26000830184613db5565b92915050565b600060808201905061420d6000830187613db5565b61421a6020830186613db5565b61422760408301856141aa565b81810360608301526142398184613dd3565b905095945050505050565b60006020820190506142596000830184613dc4565b92915050565b60006020820190506142746000830184613e0c565b92915050565b600060208201905081810360008301526142948184613e1b565b905092915050565b600060208201905081810360008301526142b581613e85565b9050919050565b600060208201905081810360008301526142d581613ea8565b9050919050565b600060208201905081810360008301526142f581613ecb565b9050919050565b6000602082019050818103600083015261431581613eee565b9050919050565b6000602082019050818103600083015261433581613f11565b9050919050565b6000602082019050818103600083015261435581613f34565b9050919050565b6000602082019050818103600083015261437581613f57565b9050919050565b6000602082019050818103600083015261439581613f7a565b9050919050565b600060208201905081810360008301526143b581613f9d565b9050919050565b600060208201905081810360008301526143d581613fc0565b9050919050565b600060208201905081810360008301526143f581613fe3565b9050919050565b6000602082019050818103600083015261441581614006565b9050919050565b6000602082019050818103600083015261443581614029565b9050919050565b600060208201905081810360008301526144558161404c565b9050919050565b600060208201905081810360008301526144758161406f565b9050919050565b6000602082019050818103600083015261449581614092565b9050919050565b600060208201905081810360008301526144b5816140b5565b9050919050565b600060208201905081810360008301526144d5816140d8565b9050919050565b600060208201905081810360008301526144f5816140fb565b9050919050565b600060208201905081810360008301526145158161411e565b9050919050565b6000602082019050818103600083015261453581614141565b9050919050565b6000602082019050818103600083015261455581614164565b9050919050565b6000602082019050818103600083015261457581614187565b9050919050565b600060208201905061459160008301846141aa565b92915050565b60006060820190506145ac60008301866141aa565b81810360208301526145be8185613e1b565b90506145cd6040830184613e0c565b949350505050565b60006145df6145f0565b90506145eb8282614a3b565b919050565b6000604051905090565b600067ffffffffffffffff82111561461557614614614b73565b5b602082029050602081019050919050565b600067ffffffffffffffff82111561464157614640614b73565b5b602082029050602081019050919050565b600067ffffffffffffffff82111561466d5761466c614b73565b5b61467682614ba2565b9050602081019050919050565b600067ffffffffffffffff82111561469e5761469d614b73565b5b6146a782614ba2565b9050602081019050919050565b600081519050919050565b600081519050919050565b600082825260208201905092915050565b600082825260208201905092915050565b600081905092915050565b6000614702826149a7565b915061470d836149a7565b9250827fffffffffffffffffffffffffffffffffffffffffffffffffffffffffffffffff0382111561474257614741614ae6565b5b828201905092915050565b60006147588261497d565b91506147638361497d565b92508261477357614772614b15565b5b600160000383147f8000000000000000000000000000000000000000000000000000000000000000831416156147ac576147ab614ae6565b5b828205905092915050565b60006147c2826149a7565b91506147cd836149a7565b9250826147dd576147dc614b15565b5b828204905092915050565b60006147f38261497d565b91506147fe8361497d565b9250827f7fffffffffffffffffffffffffffffffffffffffffffffffffffffffffffffff048211600084136000841316161561483d5761483c614ae6565b5b817f8000000000000000000000000000000000000000000000000000000000000000058312600084126000841316161561487a57614879614ae6565b5b827f800000000000000000000000000000000000000000000000000000000000000005821260008413600084121616156148b7576148b6614ae6565b5b827f7fffffffffffffffffffffffffffffffffffffffffffffffffffffffffffffff05821260008412600084121616156148f4576148f3614ae6565b5b828202905092915050565b600061490a826149a7565b9150614915836149a7565b92508282101561492857614927614ae6565b5b828203905092915050565b600061493e82614987565b9050919050565b60008115159050919050565b60007fffffffff0000000000000000000000000000000000000000000000000000000082169050919050565b6000819050919050565b600073ffffffffffffffffffffffffffffffffffffffff82169050919050565b6000819050919050565b600069ffffffffffffffffffff82169050919050565b82818337600083830152505050565b60005b838110156149f45780820151818401526020810190506149d9565b83811115614a03576000848401525b50505050565b60006002820490506001821680614a2157607f821691505b60208210811415614a3557614a34614b44565b5b50919050565b614a4482614ba2565b810181811067ffffffffffffffff82111715614a6357614a62614b73565b5b80604052505050565b6000614a77826149a7565b91507fffffffffffffffffffffffffffffffffffffffffffffffffffffffffffffffff821415614aaa57614aa9614ae6565b5b600182019050919050565b6000614ac0826149a7565b9150614acb836149a7565b925082614adb57614ada614b15565b5b828206905092915050565b7f4e487b7100000000000000000000000000000000000000000000000000000000600052601160045260246000fd5b7f4e487b7100000000000000000000000000000000000000000000000000000000600052601260045260246000fd5b7f4e487b7100000000000000000000000000000000000000000000000000000000600052602260045260246000fd5b7f4e487b7100000000000000000000000000000000000000000000000000000000600052604160045260246000fd5b6000601f19601f8301169050919050565b7f4552433732313a207472616e7366657220746f206e6f6e20455243373231526560008201527f63656976657220696d706c656d656e7465720000000000000000000000000000602082015250565b7f4552433732313a207472616e736665722066726f6d20696e636f72726563742060008201527f6f776e6572000000000000000000000000000000000000000000000000000000602082015250565b7f4552433732313a20746f6b656e20616c7265616479206d696e74656400000000600082015250565b7f4552433732313a207472616e7366657220746f20746865207a65726f2061646460008201527f7265737300000000000000000000000000000000000000000000000000000000602082015250565b7f4552433732313a20617070726f766520746f2063616c6c657200000000000000600082015250565b7f4552433732313a206f70657261746f7220717565727920666f72206e6f6e657860008201527f697374656e7420746f6b656e0000000000000000000000000000000000000000602082015250565b7f4552433732313a20617070726f76652063616c6c6572206973206e6f74206f7760008201527f6e6572206e6f7220617070726f76656420666f7220616c6c0000000000000000602082015250565b7f4552433732313a2062616c616e636520717565727920666f7220746865207a6560008201527f726f206164647265737300000000000000000000000000000000000000000000602082015250565b7f4552433732313a206f776e657220717565727920666f72206e6f6e657869737460008201527f656e7420746f6b656e0000000000000000000000000000000000000000000000602082015250565b7f53616665436173743a2076616c7565206d75737420626520706f736974697665600082015250565b7f45524337323155524953746f726167653a2055524920736574206f66206e6f6e60008201527f6578697374656e7420746f6b656e000000000000000000000000000000000000602082015250565b7f626c61636b6c6973746564207573657200000000000000000000000000000000600082015250565b7f6e6f7420636f6e7472616374206f776e65720000000000000000000000000000600082015250565b7f4552433732313a206d696e7420746f20746865207a65726f2061646472657373600082015250565b7f4e6f206d6f72652070617373657320617661696c61626c650000000000000000600082015250565b7f45524337323155524953746f726167653a2055524920717565727920666f722060008201527f6e6f6e6578697374656e7420746f6b656e000000000000000000000000000000602082015250565b7f4552433732313a20617070726f76656420717565727920666f72206e6f6e657860008201527f697374656e7420746f6b656e0000000000000000000000000000000000000000602082015250565b7f4552433732314d657461646174613a2055524920717565727920666f72206e6f60008201527f6e6578697374656e7420746f6b656e0000000000000000000000000000000000602082015250565b7f77726f6e6720616d6f756e742073656e74000000000000000000000000000000600082015250565b7f4552433732313a20617070726f76616c20746f2063757272656e74206f776e6560008201527f7200000000000000000000000000000000000000000000000000000000000000602082015250565b7f4552433732313a207472616e736665722063616c6c6572206973206e6f74206f60008201527f776e6572206e6f7220617070726f766564000000000000000000000000000000602082015250565b7f77726f6e672063617465676f7279000000000000000000000000000000000000600082015250565b7f4e6f206d6f7265206d696e742070617373657320746f2073656e640000000000600082015250565b61515981614933565b811461516457600080fd5b50565b61517081614945565b811461517b57600080fd5b50565b61518781614951565b811461519257600080fd5b50565b61519e8161497d565b81146151a957600080fd5b50565b6151b5816149a7565b81146151c057600080fd5b50565b6151cc816149b1565b81146151d757600080fd5b5056fea2646970667358221220b2525141fd7c19534e4eb15fce9bb3fcf2fa3fe2d90599d28a0ff66617383a3364736f6c6343000804003368747470733a2f2f676174657761792e70696e6174612e636c6f75642f697066732f516d61654d4256675256363768316f4c366d6d327037634e783635386d336d44687a337055624d6f6962784c5a3168747470733a2f2f676174657761792e70696e6174612e636c6f75642f697066732f516d55355864774c6b69417a33684757426335504c6858486a687333687150684c666a76616a754c524a3952503668747470733a2f2f676174657761792e70696e6174612e636c6f75642f697066732f516d626a664e6255683837586a54483270627438456152457757675843356331707341635369687253335979685a",
  "linkReferences": {},
  "deployedLinkReferences": {}
}