{
  "_format": "hh-sol-artifact-1",
  "contractName": "SimpleMintPass",
  "sourceName": "contracts/SimpleMintPass.sol",
  "abi": [
    {
      "inputs": [],
      "stateMutability": "nonpayable",
      "type": "constructor"
    },
    {
      "anonymous": false,
      "inputs": [
        {
          "indexed": true,
          "internalType": "address",
          "name": "owner",
          "type": "address"
        },
        {
          "indexed": true,
          "internalType": "address",
          "name": "approved",
          "type": "address"
        },
        {
          "indexed": true,
          "internalType": "uint256",
          "name": "tokenId",
          "type": "uint256"
        }
      ],
      "name": "Approval",
      "type": "event"
    },
    {
      "anonymous": false,
      "inputs": [
        {
          "indexed": true,
          "internalType": "address",
          "name": "owner",
          "type": "address"
        },
        {
          "indexed": true,
          "internalType": "address",
          "name": "operator",
          "type": "address"
        },
        {
          "indexed": false,
          "internalType": "bool",
          "name": "approved",
          "type": "bool"
        }
      ],
      "name": "ApprovalForAll",
      "type": "event"
    },
    {
      "anonymous": false,
      "inputs": [
        {
          "indexed": true,
          "internalType": "address",
          "name": "from",
          "type": "address"
        },
        {
          "indexed": true,
          "internalType": "address",
          "name": "to",
          "type": "address"
        },
        {
          "indexed": true,
          "internalType": "uint256",
          "name": "tokenId",
          "type": "uint256"
        }
      ],
      "name": "Transfer",
      "type": "event"
    },
    {
      "inputs": [
        {
          "internalType": "address[]",
          "name": "_to",
          "type": "address[]"
        },
        {
          "internalType": "uint256[]",
          "name": "_value",
          "type": "uint256[]"
        },
        {
          "internalType": "uint256",
          "name": "categoryId",
          "type": "uint256"
        }
      ],
      "name": "airdrop",
      "outputs": [],
      "stateMutability": "nonpayable",
      "type": "function"
    },
    {
      "inputs": [
        {
          "internalType": "address",
          "name": "to",
          "type": "address"
        },
        {
          "internalType": "uint256",
          "name": "tokenId",
          "type": "uint256"
        }
      ],
      "name": "approve",
      "outputs": [],
      "stateMutability": "nonpayable",
      "type": "function"
    },
    {
      "inputs": [
        {
          "internalType": "address",
          "name": "owner",
          "type": "address"
        }
      ],
      "name": "balanceOf",
      "outputs": [
        {
          "internalType": "uint256",
          "name": "",
          "type": "uint256"
        }
      ],
      "stateMutability": "view",
      "type": "function"
    },
    {
      "inputs": [
        {
          "internalType": "address",
          "name": "",
          "type": "address"
        }
      ],
      "name": "blacklist",
      "outputs": [
        {
          "internalType": "uint256",
          "name": "",
          "type": "uint256"
        }
      ],
      "stateMutability": "view",
      "type": "function"
    },
    {
      "inputs": [
        {
          "internalType": "address",
          "name": "user",
          "type": "address"
        }
      ],
      "name": "blockUser",
      "outputs": [],
      "stateMutability": "nonpayable",
      "type": "function"
    },
    {
      "inputs": [
        {
          "internalType": "uint256",
          "name": "tokenId",
          "type": "uint256"
        }
      ],
      "name": "burn",
      "outputs": [],
      "stateMutability": "nonpayable",
      "type": "function"
    },
    {
      "inputs": [
        {
          "internalType": "uint256",
          "name": "",
          "type": "uint256"
        }
      ],
      "name": "category",
      "outputs": [
        {
          "internalType": "uint256",
          "name": "",
          "type": "uint256"
        }
      ],
      "stateMutability": "view",
      "type": "function"
    },
    {
      "inputs": [
        {
          "internalType": "uint256",
          "name": "",
          "type": "uint256"
        }
      ],
      "name": "categoryDetails",
      "outputs": [
        {
          "internalType": "uint256",
          "name": "id",
          "type": "uint256"
        },
        {
          "internalType": "string",
          "name": "uri",
          "type": "string"
        },
        {
          "internalType": "int256",
          "name": "price",
          "type": "int256"
        }
      ],
      "stateMutability": "view",
      "type": "function"
    },
    {
      "inputs": [],
      "name": "contractOwner",
      "outputs": [
        {
          "internalType": "address",
          "name": "",
          "type": "address"
        }
      ],
      "stateMutability": "view",
      "type": "function"
    },
    {
      "inputs": [
        {
          "internalType": "uint256",
          "name": "tokenId",
          "type": "uint256"
        }
      ],
      "name": "getApproved",
      "outputs": [
        {
          "internalType": "address",
          "name": "",
          "type": "address"
        }
      ],
      "stateMutability": "view",
      "type": "function"
    },
    {
      "inputs": [],
      "name": "getETHLatestPrice",
      "outputs": [
        {
          "internalType": "int256",
          "name": "",
          "type": "int256"
        }
      ],
      "stateMutability": "view",
      "type": "function"
    },
    {
      "inputs": [
        {
          "internalType": "uint256",
          "name": "tokenId",
          "type": "uint256"
        }
      ],
      "name": "getTokenPrice",
      "outputs": [
        {
          "internalType": "uint256",
          "name": "",
          "type": "uint256"
        }
      ],
      "stateMutability": "view",
      "type": "function"
    },
    {
      "inputs": [
        {
          "internalType": "address",
          "name": "owner",
          "type": "address"
        },
        {
          "internalType": "address",
          "name": "operator",
          "type": "address"
        }
      ],
      "name": "isApprovedForAll",
      "outputs": [
        {
          "internalType": "bool",
          "name": "",
          "type": "bool"
        }
      ],
      "stateMutability": "view",
      "type": "function"
    },
    {
      "inputs": [
        {
          "internalType": "address",
          "name": "user",
          "type": "address"
        }
      ],
      "name": "isOwner",
      "outputs": [
        {
          "internalType": "bool",
          "name": "",
          "type": "bool"
        }
      ],
      "stateMutability": "view",
      "type": "function"
    },
    {
      "inputs": [],
      "name": "name",
      "outputs": [
        {
          "internalType": "string",
          "name": "",
          "type": "string"
        }
      ],
      "stateMutability": "view",
      "type": "function"
    },
    {
      "inputs": [
        {
          "internalType": "uint256",
          "name": "tokenId",
          "type": "uint256"
        }
      ],
      "name": "ownerOf",
      "outputs": [
        {
          "internalType": "address",
          "name": "",
          "type": "address"
        }
      ],
      "stateMutability": "view",
      "type": "function"
    },
    {
      "inputs": [],
      "name": "projectLimit",
      "outputs": [
        {
          "internalType": "uint256",
          "name": "",
          "type": "uint256"
        }
      ],
      "stateMutability": "view",
      "type": "function"
    },
    {
      "inputs": [
        {
          "internalType": "uint256",
          "name": "",
          "type": "uint256"
        }
      ],
      "name": "projectMints",
      "outputs": [
        {
          "internalType": "uint256",
          "name": "",
          "type": "uint256"
        }
      ],
      "stateMutability": "view",
      "type": "function"
    },
    {
      "inputs": [
        {
          "internalType": "address",
          "name": "from",
          "type": "address"
        },
        {
          "internalType": "address",
          "name": "to",
          "type": "address"
        },
        {
          "internalType": "uint256",
          "name": "tokenId",
          "type": "uint256"
        }
      ],
      "name": "safeTransferFrom",
      "outputs": [],
      "stateMutability": "nonpayable",
      "type": "function"
    },
    {
      "inputs": [
        {
          "internalType": "address",
          "name": "from",
          "type": "address"
        },
        {
          "internalType": "address",
          "name": "to",
          "type": "address"
        },
        {
          "internalType": "uint256",
          "name": "tokenId",
          "type": "uint256"
        },
        {
          "internalType": "bytes",
          "name": "_data",
          "type": "bytes"
        }
      ],
      "name": "safeTransferFrom",
      "outputs": [],
      "stateMutability": "nonpayable",
      "type": "function"
    },
    {
      "inputs": [
        {
          "internalType": "address",
          "name": "operator",
          "type": "address"
        },
        {
          "internalType": "bool",
          "name": "approved",
          "type": "bool"
        }
      ],
      "name": "setApprovalForAll",
      "outputs": [],
      "stateMutability": "nonpayable",
      "type": "function"
    },
    {
      "inputs": [
        {
          "internalType": "string",
          "name": "tokenURI",
          "type": "string"
        },
        {
          "internalType": "uint256",
          "name": "categoryId",
          "type": "uint256"
        }
      ],
      "name": "setCategoryUri",
      "outputs": [],
      "stateMutability": "nonpayable",
      "type": "function"
    },
    {
      "inputs": [
        {
          "internalType": "int256",
          "name": "silverPrice",
          "type": "int256"
        },
        {
          "internalType": "int256",
          "name": "goldPrice",
          "type": "int256"
        },
        {
          "internalType": "int256",
          "name": "platinumPrice",
          "type": "int256"
        }
      ],
      "name": "setPrice",
      "outputs": [],
      "stateMutability": "nonpayable",
      "type": "function"
    },
    {
      "inputs": [
        {
          "internalType": "string",
          "name": "tokenURI",
          "type": "string"
        },
        {
          "internalType": "uint256",
          "name": "tokenId",
          "type": "uint256"
        }
      ],
      "name": "setUri",
      "outputs": [],
      "stateMutability": "nonpayable",
      "type": "function"
    },
    {
      "inputs": [
        {
          "internalType": "bytes4",
          "name": "interfaceId",
          "type": "bytes4"
        }
      ],
      "name": "supportsInterface",
      "outputs": [
        {
          "internalType": "bool",
          "name": "",
          "type": "bool"
        }
      ],
      "stateMutability": "view",
      "type": "function"
    },
    {
      "inputs": [],
      "name": "symbol",
      "outputs": [
        {
          "internalType": "string",
          "name": "",
          "type": "string"
        }
      ],
      "stateMutability": "view",
      "type": "function"
    },
    {
      "inputs": [],
      "name": "tokenCount",
      "outputs": [
        {
          "internalType": "uint256",
          "name": "",
          "type": "uint256"
        }
      ],
      "stateMutability": "view",
      "type": "function"
    },
    {
      "inputs": [
        {
          "internalType": "uint256",
          "name": "tokenId",
          "type": "uint256"
        }
      ],
      "name": "tokenURI",
      "outputs": [
        {
          "internalType": "string",
          "name": "",
          "type": "string"
        }
      ],
      "stateMutability": "view",
      "type": "function"
    },
    {
      "inputs": [
        {
          "internalType": "address",
          "name": "sender",
          "type": "address"
        },
        {
          "internalType": "address",
          "name": "recipient",
          "type": "address"
        },
        {
          "internalType": "uint256",
          "name": "passId",
          "type": "uint256"
        }
      ],
      "name": "transferFrom",
      "outputs": [],
      "stateMutability": "nonpayable",
      "type": "function"
    },
    {
      "inputs": [
        {
          "internalType": "address",
          "name": "owner",
          "type": "address"
        }
      ],
      "name": "transferOwnership",
      "outputs": [],
      "stateMutability": "nonpayable",
      "type": "function"
    },
    {
      "inputs": [
        {
          "internalType": "uint256",
          "name": "limit",
          "type": "uint256"
        }
      ],
      "name": "updateMintingLimit",
      "outputs": [],
      "stateMutability": "nonpayable",
      "type": "function"
    },
    {
      "inputs": [
        {
          "internalType": "address",
          "name": "",
          "type": "address"
        }
      ],
      "name": "userAddr",
      "outputs": [
        {
          "internalType": "bool",
          "name": "",
          "type": "bool"
        }
      ],
      "stateMutability": "view",
      "type": "function"
    },
    {
      "inputs": [
        {
          "internalType": "uint256",
          "name": "amount",
          "type": "uint256"
        }
      ],
      "name": "withdraw",
      "outputs": [],
      "stateMutability": "nonpayable",
      "type": "function"
    },
    {
      "stateMutability": "payable",
      "type": "receive"
    }
  ],
  "bytecode": "0x608060405260646008553480156200001657600080fd5b506040518060400160405280600681526020017f53696d706c6500000000000000000000000000000000000000000000000000008152506040518060400160405280600381526020017f534d50000000000000000000000000000000000000000000000000000000000081525081600090805190602001906200009b929190620002d3565b508060019080519060200190620000b4929190620002d3565b505050739326bfa02add2366b30bacb125260af641031331600760006101000a81548173ffffffffffffffffffffffffffffffffffffffff021916908373ffffffffffffffffffffffffffffffffffffffff16021790555033600a60006101000a81548173ffffffffffffffffffffffffffffffffffffffff021916908373ffffffffffffffffffffffffffffffffffffffff160217905550604051806060016040528060018152602001604051806080016040528060508152602001620055f86050913981526020016005815250600b600060018152602001908152602001600020600082015181600001556020820151816001019080519060200190620001bf929190620002d3565b506040820151816002015590505060405180606001604052806002815260200160405180608001604052806050815260200162005558605091398152602001600a815250600b6000600281526020019081526020016000206000820151816000015560208201518160010190805190602001906200023f929190620002d3565b5060408201518160020155905050604051806060016040528060038152602001604051806080016040528060508152602001620055a86050913981526020016014815250600b600060038152602001908152602001600020600082015181600001556020820151816001019080519060200190620002bf929190620002d3565b5060408201518160020155905050620003e8565b828054620002e19062000383565b90600052602060002090601f01602090048101928262000305576000855562000351565b82601f106200032057805160ff191683800117855562000351565b8280016001018555821562000351579182015b828111156200035057825182559160200191906001019062000333565b5b50905062000360919062000364565b5090565b5b808211156200037f57600081600090555060010162000365565b5090565b600060028204905060018216806200039c57607f821691505b60208210811415620003b357620003b2620003b9565b5b50919050565b7f4e487b7100000000000000000000000000000000000000000000000000000000600052602260045260246000fd5b61516080620003f86000396000f3fe6080604052600436106101f25760003560e01c806348a18e2a1161010d578063b88d4fde116100a0578063ce606ee01161006f578063ce606ee014610eef578063df78c8d114610f1a578063e985e9c514610f45578063f2fde38b14610f82578063f9f92be414610fab57610988565b8063b88d4fde14610e0f578063c457fb3714610e38578063c7a8bbe714610e75578063c87b56dd14610eb257610988565b806394e99256116100dc57806394e9925614610d6557806395d89b4114610d905780639f181b5e14610dbb578063a22cb46514610de657610988565b806348a18e2a14610c855780636352211e14610cc257806370a0823114610cff578063731186eb14610d3c57610988565b80632e1a7d4d116101855780633da01325116101545780633da0132514610be157806342842e0e14610c0a57806342966c6814610c33578063459b059614610c5c57610988565b80632e1a7d4d14610b295780632f54bf6e14610b5257806332748fd014610b8f578063363da98e14610bb857610988565b80631056b636116101c15780631056b63614610a5b5780631fae28b714610a8457806323b872dd14610ac3578063253eca1f14610aec57610988565b806301ffc9a71461098d57806306fdde03146109ca578063081812fc146109f5578063095ea7b314610a3257610988565b366109885760006102036001610fe8565b34148061021857506102156002610fe8565b34145b8061022b57506102286003610fe8565b34145b61026a576040517f08c379a000000000000000000000000000000000000000000000000000000000815260040161026190614465565b60405180910390fd5b6102746001610fe8565b3414156104c957600190506000600c600083815260200190815260200160002054905060085481106102db576040517f08c379a00000000000000000000000000000000000000000000000000000000081526004016102d2906143e5565b60405180910390fd5b600f60003373ffffffffffffffffffffffffffffffffffffffff1673ffffffffffffffffffffffffffffffffffffffff16815260200190815260200160002054421161035c576040517f08c379a000000000000000000000000000000000000000000000000000000000815260040161035390614385565b60405180910390fd5b8080610367906149e5565b9150506009600081548092919061037d906149e5565b91905055506001600e60003373ffffffffffffffffffffffffffffffffffffffff1673ffffffffffffffffffffffffffffffffffffffff16815260200190815260200160002060006101000a81548160ff0219169083151502179055506103e633600954611094565b610490600954600b6000858152602001908152602001600020600101805461040d90614982565b80601f016020809104026020016040519081016040528092919081815260200182805461043990614982565b80156104865780601f1061045b57610100808354040283529160200191610486565b820191906000526020600020905b81548152906001019060200180831161046957829003601f168201915b505050505061126e565b80600c6000848152602001908152602001600020819055506001600d600060095481526020019081526020016000208190555050610985565b6104d36002610fe8565b34141561072857600290506000600c6000838152602001908152602001600020549050600854811061053a576040517f08c379a0000000000000000000000000000000000000000000000000000000008152600401610531906143e5565b60405180910390fd5b600f60003373ffffffffffffffffffffffffffffffffffffffff1673ffffffffffffffffffffffffffffffffffffffff1681526020019081526020016000205442116105bb576040517f08c379a00000000000000000000000000000000000000000000000000000000081526004016105b290614385565b60405180910390fd5b600960008154809291906105ce906149e5565b91905055506001600e60003373ffffffffffffffffffffffffffffffffffffffff1673ffffffffffffffffffffffffffffffffffffffff16815260200190815260200160002060006101000a81548160ff0219169083151502179055508080610636906149e5565b91505061064533600954611094565b6106ef600954600b6000858152602001908152602001600020600101805461066c90614982565b80601f016020809104026020016040519081016040528092919081815260200182805461069890614982565b80156106e55780601f106106ba576101008083540402835291602001916106e5565b820191906000526020600020905b8154815290600101906020018083116106c857829003601f168201915b505050505061126e565b80600c6000848152602001908152602001600020819055506002600d600060095481526020019081526020016000208190555050610984565b6107326003610fe8565b34141561098357600390506000600c60008381526020019081526020016000205490506008548110610799576040517f08c379a0000000000000000000000000000000000000000000000000000000008152600401610790906143e5565b60405180910390fd5b600f60003373ffffffffffffffffffffffffffffffffffffffff1673ffffffffffffffffffffffffffffffffffffffff16815260200190815260200160002054421161081a576040517f08c379a000000000000000000000000000000000000000000000000000000000815260040161081190614385565b60405180910390fd5b6009600081548092919061082d906149e5565b91905055506001600e60003373ffffffffffffffffffffffffffffffffffffffff1673ffffffffffffffffffffffffffffffffffffffff16815260200190815260200160002060006101000a81548160ff0219169083151502179055508080610895906149e5565b9150506108a433600954611094565b61094e600954600b600085815260200190815260200160002060010180546108cb90614982565b80601f01602080910402602001604051908101604052809291908181526020018280546108f790614982565b80156109445780601f1061091957610100808354040283529160200191610944565b820191906000526020600020905b81548152906001019060200180831161092757829003601f168201915b505050505061126e565b80600c6000848152602001908152602001600020819055506003600d6000600954815260200190815260200160002081905550505b5b5b50005b600080fd5b34801561099957600080fd5b506109b460048036038101906109af9190613bc3565b6112e2565b6040516109c191906141ed565b60405180910390f35b3480156109d657600080fd5b506109df6113c4565b6040516109ec9190614223565b60405180910390f35b348015610a0157600080fd5b50610a1c6004803603810190610a179190613cb8565b611456565b604051610a299190614186565b60405180910390f35b348015610a3e57600080fd5b50610a596004803603810190610a549190613b08565b6114db565b005b348015610a6757600080fd5b50610a826004803603810190610a7d9190613c64565b6115f3565b005b348015610a9057600080fd5b50610aab6004803603810190610aa69190613cb8565b6116b2565b604051610aba93929190614520565b60405180910390f35b348015610acf57600080fd5b50610aea6004803603810190610ae59190613a02565b611764565b005b348015610af857600080fd5b50610b136004803603810190610b0e9190613cb8565b6119a0565b604051610b209190614505565b60405180910390f35b348015610b3557600080fd5b50610b506004803603810190610b4b9190613cb8565b6119b8565b005b348015610b5e57600080fd5b50610b796004803603810190610b74919061399d565b611a24565b604051610b8691906141ed565b60405180910390f35b348015610b9b57600080fd5b50610bb66004803603810190610bb19190613c64565b611a8f565b005b348015610bc457600080fd5b50610bdf6004803603810190610bda9190613cb8565b611b2d565b005b348015610bed57600080fd5b50610c086004803603810190610c03919061399d565b611bc7565b005b348015610c1657600080fd5b50610c316004803603810190610c2c9190613a02565b611cac565b005b348015610c3f57600080fd5b50610c5a6004803603810190610c559190613cb8565b611ccc565b005b348015610c6857600080fd5b50610c836004803603810190610c7e9190613c15565b611d68565b005b348015610c9157600080fd5b50610cac6004803603810190610ca79190613cb8565b611e51565b604051610cb99190614505565b60405180910390f35b348015610cce57600080fd5b50610ce96004803603810190610ce49190613cb8565b611e69565b604051610cf69190614186565b60405180910390f35b348015610d0b57600080fd5b50610d266004803603810190610d21919061399d565b611f1b565b604051610d339190614505565b60405180910390f35b348015610d4857600080fd5b50610d636004803603810190610d5e9190613b44565b611fd3565b005b348015610d7157600080fd5b50610d7a61247f565b604051610d879190614208565b60405180910390f35b348015610d9c57600080fd5b50610da561252f565b604051610db29190614223565b60405180910390f35b348015610dc757600080fd5b50610dd06125c1565b604051610ddd9190614505565b60405180910390f35b348015610df257600080fd5b50610e0d6004803603810190610e089190613acc565b6125c7565b005b348015610e1b57600080fd5b50610e366004803603810190610e319190613a51565b6125dd565b005b348015610e4457600080fd5b50610e5f6004803603810190610e5a9190613cb8565b610fe8565b604051610e6c9190614505565b60405180910390f35b348015610e8157600080fd5b50610e9c6004803603810190610e97919061399d565b61263f565b604051610ea991906141ed565b60405180910390f35b348015610ebe57600080fd5b50610ed96004803603810190610ed49190613cb8565b61265f565b604051610ee69190614223565b60405180910390f35b348015610efb57600080fd5b50610f046127b1565b604051610f119190614186565b60405180910390f35b348015610f2657600080fd5b50610f2f6127d7565b604051610f3c9190614505565b60405180910390f35b348015610f5157600080fd5b50610f6c6004803603810190610f6791906139c6565b6127dd565b604051610f7991906141ed565b60405180910390f35b348015610f8e57600080fd5b50610fa96004803603810190610fa4919061399d565b612871565b005b348015610fb757600080fd5b50610fd26004803603810190610fcd919061399d565b612945565b604051610fdf9190614505565b60405180910390f35b60008068056bc75e2d63100000600b6000858152602001908152602001600020600201546110169190614707565b90506000670de0b6b3a76400006305f5e10061103061247f565b61103a9190614707565b6110449190614707565b90506000670de0b6b3a764000082670de0b6b3a764000085611066919061481e565b61107091906146d6565b61107a919061481e565b90506127108161108a91906146d6565b9350505050919050565b600073ffffffffffffffffffffffffffffffffffffffff168273ffffffffffffffffffffffffffffffffffffffff161415611104576040517f08c379a00000000000000000000000000000000000000000000000000000000081526004016110fb906143c5565b60405180910390fd5b61110d8161295d565b1561114d576040517f08c379a000000000000000000000000000000000000000000000000000000000815260040161114490614285565b60405180910390fd5b611159600083836129c9565b6001600360008473ffffffffffffffffffffffffffffffffffffffff1673ffffffffffffffffffffffffffffffffffffffff16815260200190815260200160002060008282546111a99190614680565b92505081905550816002600083815260200190815260200160002060006101000a81548173ffffffffffffffffffffffffffffffffffffffff021916908373ffffffffffffffffffffffffffffffffffffffff160217905550808273ffffffffffffffffffffffffffffffffffffffff16600073ffffffffffffffffffffffffffffffffffffffff167fddf252ad1be2c89b69c2b068fc378daa952ba7f163c4a11628f55a4df523b3ef60405160405180910390a461126a600083836129ce565b5050565b6112778261295d565b6112b6576040517f08c379a00000000000000000000000000000000000000000000000000000000081526004016112ad90614365565b60405180910390fd5b806006600084815260200190815260200160002090805190602001906112dd929190613601565b505050565b60007f80ac58cd000000000000000000000000000000000000000000000000000000007bffffffffffffffffffffffffffffffffffffffffffffffffffffffff1916827bffffffffffffffffffffffffffffffffffffffffffffffffffffffff191614806113ad57507f5b5e139f000000000000000000000000000000000000000000000000000000007bffffffffffffffffffffffffffffffffffffffffffffffffffffffff1916827bffffffffffffffffffffffffffffffffffffffffffffffffffffffff1916145b806113bd57506113bc826129d3565b5b9050919050565b6060600080546113d390614982565b80601f01602080910402602001604051908101604052809291908181526020018280546113ff90614982565b801561144c5780601f106114215761010080835404028352916020019161144c565b820191906000526020600020905b81548152906001019060200180831161142f57829003601f168201915b5050505050905090565b60006114618261295d565b6114a0576040517f08c379a000000000000000000000000000000000000000000000000000000000815260040161149790614425565b60405180910390fd5b6004600083815260200190815260200160002060009054906101000a900473ffffffffffffffffffffffffffffffffffffffff169050919050565b60006114e682611e69565b90508073ffffffffffffffffffffffffffffffffffffffff168373ffffffffffffffffffffffffffffffffffffffff161415611557576040517f08c379a000000000000000000000000000000000000000000000000000000000815260040161154e90614485565b60405180910390fd5b8073ffffffffffffffffffffffffffffffffffffffff16611576612a3d565b73ffffffffffffffffffffffffffffffffffffffff1614806115a557506115a48161159f612a3d565b6127dd565b5b6115e4576040517f08c379a00000000000000000000000000000000000000000000000000000000081526004016115db90614305565b60405180910390fd5b6115ee8383612a45565b505050565b600a60009054906101000a900473ffffffffffffffffffffffffffffffffffffffff1673ffffffffffffffffffffffffffffffffffffffff163373ffffffffffffffffffffffffffffffffffffffff1614611683576040517f08c379a000000000000000000000000000000000000000000000000000000000815260040161167a906143a5565b60405180910390fd5b81600b600083815260200190815260200160002060010190805190602001906116ad929190613601565b505050565b600b6020528060005260406000206000915090508060000154908060010180546116db90614982565b80601f016020809104026020016040519081016040528092919081815260200182805461170790614982565b80156117545780601f1061172957610100808354040283529160200191611754565b820191906000526020600020905b81548152906001019060200180831161173757829003601f168201915b5050505050908060020154905083565b600f60003373ffffffffffffffffffffffffffffffffffffffff1673ffffffffffffffffffffffffffffffffffffffff1681526020019081526020016000205442116117e5576040517f08c379a00000000000000000000000000000000000000000000000000000000081526004016117dc90614385565b60405180910390fd5b60011515600e60008573ffffffffffffffffffffffffffffffffffffffff1673ffffffffffffffffffffffffffffffffffffffff16815260200190815260200160002060009054906101000a900460ff161515141561198f576001600e60008473ffffffffffffffffffffffffffffffffffffffff1673ffffffffffffffffffffffffffffffffffffffff16815260200190815260200160002060006101000a81548160ff0219169083151502179055506118a1838383612afe565b60003073ffffffffffffffffffffffffffffffffffffffff166370a08231856040518263ffffffff1660e01b81526004016118dc9190614186565b60206040518083038186803b1580156118f457600080fd5b505afa158015611908573d6000803e3d6000fd5b505050506040513d601f19601f8201168201806040525081019061192c9190613ce1565b1161198a576000600e60008573ffffffffffffffffffffffffffffffffffffffff1673ffffffffffffffffffffffffffffffffffffffff16815260200190815260200160002060006101000a81548160ff0219169083151502179055505b61199b565b61199a838383612afe565b5b505050565b600d6020528060005260406000206000915090505481565b600a60009054906101000a900473ffffffffffffffffffffffffffffffffffffffff1673ffffffffffffffffffffffffffffffffffffffff166108fc829081150290604051600060405180830381858888f19350505050158015611a20573d6000803e3d6000fd5b5050565b6000600a60009054906101000a900473ffffffffffffffffffffffffffffffffffffffff1673ffffffffffffffffffffffffffffffffffffffff168273ffffffffffffffffffffffffffffffffffffffff161415611a855760019050611a8a565b600090505b919050565b600a60009054906101000a900473ffffffffffffffffffffffffffffffffffffffff1673ffffffffffffffffffffffffffffffffffffffff163373ffffffffffffffffffffffffffffffffffffffff1614611b1f576040517f08c379a0000000000000000000000000000000000000000000000000000000008152600401611b16906143a5565b60405180910390fd5b611b29818361126e565b5050565b600a60009054906101000a900473ffffffffffffffffffffffffffffffffffffffff1673ffffffffffffffffffffffffffffffffffffffff163373ffffffffffffffffffffffffffffffffffffffff1614611bbd576040517f08c379a0000000000000000000000000000000000000000000000000000000008152600401611bb4906143a5565b60405180910390fd5b8060088190555050565b600a60009054906101000a900473ffffffffffffffffffffffffffffffffffffffff1673ffffffffffffffffffffffffffffffffffffffff163373ffffffffffffffffffffffffffffffffffffffff1614611c57576040517f08c379a0000000000000000000000000000000000000000000000000000000008152600401611c4e906143a5565b60405180910390fd5b62093a8042611c669190614680565b600f60008373ffffffffffffffffffffffffffffffffffffffff1673ffffffffffffffffffffffffffffffffffffffff1681526020019081526020016000208190555050565b611cc7838383604051806020016040528060008152506125dd565b505050565b600a60009054906101000a900473ffffffffffffffffffffffffffffffffffffffff1673ffffffffffffffffffffffffffffffffffffffff163373ffffffffffffffffffffffffffffffffffffffff1614611d5c576040517f08c379a0000000000000000000000000000000000000000000000000000000008152600401611d53906143a5565b60405180910390fd5b611d6581612b5e565b50565b600a60009054906101000a900473ffffffffffffffffffffffffffffffffffffffff1673ffffffffffffffffffffffffffffffffffffffff163373ffffffffffffffffffffffffffffffffffffffff1614611df8576040517f08c379a0000000000000000000000000000000000000000000000000000000008152600401611def906143a5565b60405180910390fd5b82600b6000600181526020019081526020016000206002018190555081600b6000600281526020019081526020016000206002018190555080600b60006003815260200190815260200160002060020181905550505050565b600c6020528060005260406000206000915090505481565b6000806002600084815260200190815260200160002060009054906101000a900473ffffffffffffffffffffffffffffffffffffffff169050600073ffffffffffffffffffffffffffffffffffffffff168173ffffffffffffffffffffffffffffffffffffffff161415611f12576040517f08c379a0000000000000000000000000000000000000000000000000000000008152600401611f0990614345565b60405180910390fd5b80915050919050565b60008073ffffffffffffffffffffffffffffffffffffffff168273ffffffffffffffffffffffffffffffffffffffff161415611f8c576040517f08c379a0000000000000000000000000000000000000000000000000000000008152600401611f8390614325565b60405180910390fd5b600360008373ffffffffffffffffffffffffffffffffffffffff1673ffffffffffffffffffffffffffffffffffffffff168152602001908152602001600020549050919050565b600a60009054906101000a900473ffffffffffffffffffffffffffffffffffffffff1673ffffffffffffffffffffffffffffffffffffffff163373ffffffffffffffffffffffffffffffffffffffff1614612063576040517f08c379a000000000000000000000000000000000000000000000000000000000815260040161205a906143a5565b60405180910390fd5b815183511461207157600080fd5b60005b83518110156124795760005b8382815181106120b9577f4e487b7100000000000000000000000000000000000000000000000000000000600052603260045260246000fd5b6020026020010151811015612465576000600c6000858152602001908152602001600020549050600f600087858151811061211d577f4e487b7100000000000000000000000000000000000000000000000000000000600052603260045260246000fd5b602002602001015173ffffffffffffffffffffffffffffffffffffffff1673ffffffffffffffffffffffffffffffffffffffff1681526020019081526020016000205442116121a1576040517f08c379a000000000000000000000000000000000000000000000000000000000815260040161219890614385565b60405180910390fd5b600084116121e4576040517f08c379a00000000000000000000000000000000000000000000000000000000081526004016121db906144c5565b60405180910390fd5b60048410612227576040517f08c379a000000000000000000000000000000000000000000000000000000000815260040161221e906144c5565b60405180910390fd5b600854811061226b576040517f08c379a0000000000000000000000000000000000000000000000000000000008152600401612262906144e5565b60405180910390fd5b8080612276906149e5565b9150506009600081548092919061228c906149e5565b91905055506001600e60008886815181106122d0577f4e487b7100000000000000000000000000000000000000000000000000000000600052603260045260246000fd5b602002602001015173ffffffffffffffffffffffffffffffffffffffff1673ffffffffffffffffffffffffffffffffffffffff16815260200190815260200160002060006101000a81548160ff021916908315150217905550612375868481518110612365577f4e487b7100000000000000000000000000000000000000000000000000000000600052603260045260246000fd5b6020026020010151600954611094565b61241f600954600b6000878152602001908152602001600020600101805461239c90614982565b80601f01602080910402602001604051908101604052809291908181526020018280546123c890614982565b80156124155780601f106123ea57610100808354040283529160200191612415565b820191906000526020600020905b8154815290600101906020018083116123f857829003601f168201915b505050505061126e565b80600c60008681526020019081526020016000208190555083600d600060095481526020019081526020016000208190555050808061245d906149e5565b915050612080565b508080612471906149e5565b915050612074565b50505050565b600080600760009054906101000a900473ffffffffffffffffffffffffffffffffffffffff1673ffffffffffffffffffffffffffffffffffffffff1663feaf968c6040518163ffffffff1660e01b815260040160a06040518083038186803b1580156124ea57600080fd5b505afa1580156124fe573d6000803e3d6000fd5b505050506040513d601f19601f820116820180604052508101906125229190613d0a565b5050509150508091505090565b60606001805461253e90614982565b80601f016020809104026020016040519081016040528092919081815260200182805461256a90614982565b80156125b75780601f1061258c576101008083540402835291602001916125b7565b820191906000526020600020905b81548152906001019060200180831161259a57829003601f168201915b5050505050905090565b60095481565b6125d96125d2612a3d565b8383612bb1565b5050565b6125ee6125e8612a3d565b83612d1e565b61262d576040517f08c379a0000000000000000000000000000000000000000000000000000000008152600401612624906144a5565b60405180910390fd5b61263984848484612dfc565b50505050565b600e6020528060005260406000206000915054906101000a900460ff1681565b606061266a8261295d565b6126a9576040517f08c379a00000000000000000000000000000000000000000000000000000000081526004016126a090614405565b60405180910390fd5b60006006600084815260200190815260200160002080546126c990614982565b80601f01602080910402602001604051908101604052809291908181526020018280546126f590614982565b80156127425780601f1061271757610100808354040283529160200191612742565b820191906000526020600020905b81548152906001019060200180831161272557829003601f168201915b505050505090506000612753612e58565b90506000815114156127695781925050506127ac565b60008251111561279e578082604051602001612786929190614162565b604051602081830303815290604052925050506127ac565b6127a784612e6f565b925050505b919050565b600a60009054906101000a900473ffffffffffffffffffffffffffffffffffffffff1681565b60085481565b6000600560008473ffffffffffffffffffffffffffffffffffffffff1673ffffffffffffffffffffffffffffffffffffffff16815260200190815260200160002060008373ffffffffffffffffffffffffffffffffffffffff1673ffffffffffffffffffffffffffffffffffffffff16815260200190815260200160002060009054906101000a900460ff16905092915050565b600a60009054906101000a900473ffffffffffffffffffffffffffffffffffffffff1673ffffffffffffffffffffffffffffffffffffffff163373ffffffffffffffffffffffffffffffffffffffff1614612901576040517f08c379a00000000000000000000000000000000000000000000000000000000081526004016128f8906143a5565b60405180910390fd5b80600a60006101000a81548173ffffffffffffffffffffffffffffffffffffffff021916908373ffffffffffffffffffffffffffffffffffffffff16021790555050565b600f6020528060005260406000206000915090505481565b60008073ffffffffffffffffffffffffffffffffffffffff166002600084815260200190815260200160002060009054906101000a900473ffffffffffffffffffffffffffffffffffffffff1673ffffffffffffffffffffffffffffffffffffffff1614159050919050565b505050565b505050565b60007f01ffc9a7000000000000000000000000000000000000000000000000000000007bffffffffffffffffffffffffffffffffffffffffffffffffffffffff1916827bffffffffffffffffffffffffffffffffffffffffffffffffffffffff1916149050919050565b600033905090565b816004600083815260200190815260200160002060006101000a81548173ffffffffffffffffffffffffffffffffffffffff021916908373ffffffffffffffffffffffffffffffffffffffff160217905550808273ffffffffffffffffffffffffffffffffffffffff16612ab883611e69565b73ffffffffffffffffffffffffffffffffffffffff167f8c5be1e5ebec7d5bd14f71427d1e84f3dd0314c0f7b2291e5b200ac8c7c3b92560405160405180910390a45050565b612b0f612b09612a3d565b82612d1e565b612b4e576040517f08c379a0000000000000000000000000000000000000000000000000000000008152600401612b45906144a5565b60405180910390fd5b612b59838383612f16565b505050565b612b678161317d565b6000600660008381526020019081526020016000208054612b8790614982565b905014612bae57600660008281526020019081526020016000206000612bad9190613687565b5b50565b8173ffffffffffffffffffffffffffffffffffffffff168373ffffffffffffffffffffffffffffffffffffffff161415612c20576040517f08c379a0000000000000000000000000000000000000000000000000000000008152600401612c17906142c5565b60405180910390fd5b80600560008573ffffffffffffffffffffffffffffffffffffffff1673ffffffffffffffffffffffffffffffffffffffff16815260200190815260200160002060008473ffffffffffffffffffffffffffffffffffffffff1673ffffffffffffffffffffffffffffffffffffffff16815260200190815260200160002060006101000a81548160ff0219169083151502179055508173ffffffffffffffffffffffffffffffffffffffff168373ffffffffffffffffffffffffffffffffffffffff167f17307eab39ab6107e8899845ad3d59bd9653f200f220920489ca2b5937696c3183604051612d1191906141ed565b60405180910390a3505050565b6000612d298261295d565b612d68576040517f08c379a0000000000000000000000000000000000000000000000000000000008152600401612d5f906142e5565b60405180910390fd5b6000612d7383611e69565b90508073ffffffffffffffffffffffffffffffffffffffff168473ffffffffffffffffffffffffffffffffffffffff161480612db55750612db481856127dd565b5b80612df357508373ffffffffffffffffffffffffffffffffffffffff16612ddb84611456565b73ffffffffffffffffffffffffffffffffffffffff16145b91505092915050565b612e07848484612f16565b612e138484848461329a565b612e52576040517f08c379a0000000000000000000000000000000000000000000000000000000008152600401612e4990614245565b60405180910390fd5b50505050565b606060405180602001604052806000815250905090565b6060612e7a8261295d565b612eb9576040517f08c379a0000000000000000000000000000000000000000000000000000000008152600401612eb090614445565b60405180910390fd5b6000612ec3612e58565b90506000815111612ee35760405180602001604052806000815250612f0e565b80612eed84613431565b604051602001612efe929190614162565b6040516020818303038152906040525b915050919050565b8273ffffffffffffffffffffffffffffffffffffffff16612f3682611e69565b73ffffffffffffffffffffffffffffffffffffffff1614612f8c576040517f08c379a0000000000000000000000000000000000000000000000000000000008152600401612f8390614265565b60405180910390fd5b600073ffffffffffffffffffffffffffffffffffffffff168273ffffffffffffffffffffffffffffffffffffffff161415612ffc576040517f08c379a0000000000000000000000000000000000000000000000000000000008152600401612ff3906142a5565b60405180910390fd5b6130078383836129c9565b613012600082612a45565b6001600360008573ffffffffffffffffffffffffffffffffffffffff1673ffffffffffffffffffffffffffffffffffffffff16815260200190815260200160002060008282546130629190614878565b925050819055506001600360008473ffffffffffffffffffffffffffffffffffffffff1673ffffffffffffffffffffffffffffffffffffffff16815260200190815260200160002060008282546130b99190614680565b92505081905550816002600083815260200190815260200160002060006101000a81548173ffffffffffffffffffffffffffffffffffffffff021916908373ffffffffffffffffffffffffffffffffffffffff160217905550808273ffffffffffffffffffffffffffffffffffffffff168473ffffffffffffffffffffffffffffffffffffffff167fddf252ad1be2c89b69c2b068fc378daa952ba7f163c4a11628f55a4df523b3ef60405160405180910390a46131788383836129ce565b505050565b600061318882611e69565b9050613196816000846129c9565b6131a1600083612a45565b6001600360008373ffffffffffffffffffffffffffffffffffffffff1673ffffffffffffffffffffffffffffffffffffffff16815260200190815260200160002060008282546131f19190614878565b925050819055506002600083815260200190815260200160002060006101000a81549073ffffffffffffffffffffffffffffffffffffffff021916905581600073ffffffffffffffffffffffffffffffffffffffff168273ffffffffffffffffffffffffffffffffffffffff167fddf252ad1be2c89b69c2b068fc378daa952ba7f163c4a11628f55a4df523b3ef60405160405180910390a4613296816000846129ce565b5050565b60006132bb8473ffffffffffffffffffffffffffffffffffffffff166135de565b15613424578373ffffffffffffffffffffffffffffffffffffffff1663150b7a026132e4612a3d565b8786866040518563ffffffff1660e01b815260040161330694939291906141a1565b602060405180830381600087803b15801561332057600080fd5b505af192505050801561335157506040513d601f19601f8201168201806040525081019061334e9190613bec565b60015b6133d4573d8060008114613381576040519150601f19603f3d011682016040523d82523d6000602084013e613386565b606091505b506000815114156133cc576040517f08c379a00000000000000000000000000000000000000000000000000000000081526004016133c390614245565b60405180910390fd5b805181602001fd5b63150b7a0260e01b7bffffffffffffffffffffffffffffffffffffffffffffffffffffffff1916817bffffffffffffffffffffffffffffffffffffffffffffffffffffffff191614915050613429565b600190505b949350505050565b60606000821415613479576040518060400160405280600181526020017f300000000000000000000000000000000000000000000000000000000000000081525090506135d9565b600082905060005b600082146134ab578080613494906149e5565b915050600a826134a491906146d6565b9150613481565b60008167ffffffffffffffff8111156134ed577f4e487b7100000000000000000000000000000000000000000000000000000000600052604160045260246000fd5b6040519080825280601f01601f19166020018201604052801561351f5781602001600182028036833780820191505090505b5090505b600085146135d2576001826135389190614878565b9150600a856135479190614a2e565b60306135539190614680565b60f81b81838151811061358f577f4e487b7100000000000000000000000000000000000000000000000000000000600052603260045260246000fd5b60200101907effffffffffffffffffffffffffffffffffffffffffffffffffffffffffffff1916908160001a905350600a856135cb91906146d6565b9450613523565b8093505050505b919050565b6000808273ffffffffffffffffffffffffffffffffffffffff163b119050919050565b82805461360d90614982565b90600052602060002090601f01602090048101928261362f5760008555613676565b82601f1061364857805160ff1916838001178555613676565b82800160010185558215613676579182015b8281111561367557825182559160200191906001019061365a565b5b50905061368391906136c7565b5090565b50805461369390614982565b6000825580601f106136a557506136c4565b601f0160209004906000526020600020908101906136c391906136c7565b5b50565b5b808211156136e05760008160009055506001016136c8565b5090565b60006136f76136f284614583565b61455e565b9050808382526020820190508285602086028201111561371657600080fd5b60005b85811015613746578161372c8882613838565b845260208401935060208301925050600181019050613719565b5050509392505050565b600061376361375e846145af565b61455e565b9050808382526020820190508285602086028201111561378257600080fd5b60005b858110156137b25781613798888261395e565b845260208401935060208301925050600181019050613785565b5050509392505050565b60006137cf6137ca846145db565b61455e565b9050828152602081018484840111156137e757600080fd5b6137f2848285614940565b509392505050565b600061380d6138088461460c565b61455e565b90508281526020810184848401111561382557600080fd5b613830848285614940565b509392505050565b600081359050613847816150a0565b92915050565b600082601f83011261385e57600080fd5b813561386e8482602086016136e4565b91505092915050565b600082601f83011261388857600080fd5b8135613898848260208601613750565b91505092915050565b6000813590506138b0816150b7565b92915050565b6000813590506138c5816150ce565b92915050565b6000815190506138da816150ce565b92915050565b600082601f8301126138f157600080fd5b81356139018482602086016137bc565b91505092915050565b600081359050613919816150e5565b92915050565b60008151905061392e816150e5565b92915050565b600082601f83011261394557600080fd5b81356139558482602086016137fa565b91505092915050565b60008135905061396d816150fc565b92915050565b600081519050613982816150fc565b92915050565b60008151905061399781615113565b92915050565b6000602082840312156139af57600080fd5b60006139bd84828501613838565b91505092915050565b600080604083850312156139d957600080fd5b60006139e785828601613838565b92505060206139f885828601613838565b9150509250929050565b600080600060608486031215613a1757600080fd5b6000613a2586828701613838565b9350506020613a3686828701613838565b9250506040613a478682870161395e565b9150509250925092565b60008060008060808587031215613a6757600080fd5b6000613a7587828801613838565b9450506020613a8687828801613838565b9350506040613a978782880161395e565b925050606085013567ffffffffffffffff811115613ab457600080fd5b613ac0878288016138e0565b91505092959194509250565b60008060408385031215613adf57600080fd5b6000613aed85828601613838565b9250506020613afe858286016138a1565b9150509250929050565b60008060408385031215613b1b57600080fd5b6000613b2985828601613838565b9250506020613b3a8582860161395e565b9150509250929050565b600080600060608486031215613b5957600080fd5b600084013567ffffffffffffffff811115613b7357600080fd5b613b7f8682870161384d565b935050602084013567ffffffffffffffff811115613b9c57600080fd5b613ba886828701613877565b9250506040613bb98682870161395e565b9150509250925092565b600060208284031215613bd557600080fd5b6000613be3848285016138b6565b91505092915050565b600060208284031215613bfe57600080fd5b6000613c0c848285016138cb565b91505092915050565b600080600060608486031215613c2a57600080fd5b6000613c388682870161390a565b9350506020613c498682870161390a565b9250506040613c5a8682870161390a565b9150509250925092565b60008060408385031215613c7757600080fd5b600083013567ffffffffffffffff811115613c9157600080fd5b613c9d85828601613934565b9250506020613cae8582860161395e565b9150509250929050565b600060208284031215613cca57600080fd5b6000613cd88482850161395e565b91505092915050565b600060208284031215613cf357600080fd5b6000613d0184828501613973565b91505092915050565b600080600080600060a08688031215613d2257600080fd5b6000613d3088828901613988565b9550506020613d418882890161391f565b9450506040613d5288828901613973565b9350506060613d6388828901613973565b9250506080613d7488828901613988565b9150509295509295909350565b613d8a816148ac565b82525050565b613d99816148be565b82525050565b6000613daa8261463d565b613db48185614653565b9350613dc481856020860161494f565b613dcd81614b1b565b840191505092915050565b613de1816148f6565b82525050565b6000613df282614648565b613dfc8185614664565b9350613e0c81856020860161494f565b613e1581614b1b565b840191505092915050565b6000613e2b82614648565b613e358185614675565b9350613e4581856020860161494f565b80840191505092915050565b6000613e5e603283614664565b9150613e6982614b2c565b604082019050919050565b6000613e81602583614664565b9150613e8c82614b7b565b604082019050919050565b6000613ea4601c83614664565b9150613eaf82614bca565b602082019050919050565b6000613ec7602483614664565b9150613ed282614bf3565b604082019050919050565b6000613eea601983614664565b9150613ef582614c42565b602082019050919050565b6000613f0d602c83614664565b9150613f1882614c6b565b604082019050919050565b6000613f30603883614664565b9150613f3b82614cba565b604082019050919050565b6000613f53602a83614664565b9150613f5e82614d09565b604082019050919050565b6000613f76602983614664565b9150613f8182614d58565b604082019050919050565b6000613f99602e83614664565b9150613fa482614da7565b604082019050919050565b6000613fbc601083614664565b9150613fc782614df6565b602082019050919050565b6000613fdf601283614664565b9150613fea82614e1f565b602082019050919050565b6000614002602083614664565b915061400d82614e48565b602082019050919050565b6000614025601883614664565b915061403082614e71565b602082019050919050565b6000614048603183614664565b915061405382614e9a565b604082019050919050565b600061406b602c83614664565b915061407682614ee9565b604082019050919050565b600061408e602f83614664565b915061409982614f38565b604082019050919050565b60006140b1601183614664565b91506140bc82614f87565b602082019050919050565b60006140d4602183614664565b91506140df82614fb0565b604082019050919050565b60006140f7603183614664565b915061410282614fff565b604082019050919050565b600061411a600e83614664565b91506141258261504e565b602082019050919050565b600061413d601b83614664565b915061414882615077565b602082019050919050565b61415c81614920565b82525050565b600061416e8285613e20565b915061417a8284613e20565b91508190509392505050565b600060208201905061419b6000830184613d81565b92915050565b60006080820190506141b66000830187613d81565b6141c36020830186613d81565b6141d06040830185614153565b81810360608301526141e28184613d9f565b905095945050505050565b60006020820190506142026000830184613d90565b92915050565b600060208201905061421d6000830184613dd8565b92915050565b6000602082019050818103600083015261423d8184613de7565b905092915050565b6000602082019050818103600083015261425e81613e51565b9050919050565b6000602082019050818103600083015261427e81613e74565b9050919050565b6000602082019050818103600083015261429e81613e97565b9050919050565b600060208201905081810360008301526142be81613eba565b9050919050565b600060208201905081810360008301526142de81613edd565b9050919050565b600060208201905081810360008301526142fe81613f00565b9050919050565b6000602082019050818103600083015261431e81613f23565b9050919050565b6000602082019050818103600083015261433e81613f46565b9050919050565b6000602082019050818103600083015261435e81613f69565b9050919050565b6000602082019050818103600083015261437e81613f8c565b9050919050565b6000602082019050818103600083015261439e81613faf565b9050919050565b600060208201905081810360008301526143be81613fd2565b9050919050565b600060208201905081810360008301526143de81613ff5565b9050919050565b600060208201905081810360008301526143fe81614018565b9050919050565b6000602082019050818103600083015261441e8161403b565b9050919050565b6000602082019050818103600083015261443e8161405e565b9050919050565b6000602082019050818103600083015261445e81614081565b9050919050565b6000602082019050818103600083015261447e816140a4565b9050919050565b6000602082019050818103600083015261449e816140c7565b9050919050565b600060208201905081810360008301526144be816140ea565b9050919050565b600060208201905081810360008301526144de8161410d565b9050919050565b600060208201905081810360008301526144fe81614130565b9050919050565b600060208201905061451a6000830184614153565b92915050565b60006060820190506145356000830186614153565b81810360208301526145478185613de7565b90506145566040830184613dd8565b949350505050565b6000614568614579565b905061457482826149b4565b919050565b6000604051905090565b600067ffffffffffffffff82111561459e5761459d614aec565b5b602082029050602081019050919050565b600067ffffffffffffffff8211156145ca576145c9614aec565b5b602082029050602081019050919050565b600067ffffffffffffffff8211156145f6576145f5614aec565b5b6145ff82614b1b565b9050602081019050919050565b600067ffffffffffffffff82111561462757614626614aec565b5b61463082614b1b565b9050602081019050919050565b600081519050919050565b600081519050919050565b600082825260208201905092915050565b600082825260208201905092915050565b600081905092915050565b600061468b82614920565b915061469683614920565b9250827fffffffffffffffffffffffffffffffffffffffffffffffffffffffffffffffff038211156146cb576146ca614a5f565b5b828201905092915050565b60006146e182614920565b91506146ec83614920565b9250826146fc576146fb614a8e565b5b828204905092915050565b6000614712826148f6565b915061471d836148f6565b9250827f7fffffffffffffffffffffffffffffffffffffffffffffffffffffffffffffff048211600084136000841316161561475c5761475b614a5f565b5b817f8000000000000000000000000000000000000000000000000000000000000000058312600084126000841316161561479957614798614a5f565b5b827f800000000000000000000000000000000000000000000000000000000000000005821260008413600084121616156147d6576147d5614a5f565b5b827f7fffffffffffffffffffffffffffffffffffffffffffffffffffffffffffffff058212600084126000841216161561481357614812614a5f565b5b828202905092915050565b600061482982614920565b915061483483614920565b9250817fffffffffffffffffffffffffffffffffffffffffffffffffffffffffffffffff048311821515161561486d5761486c614a5f565b5b828202905092915050565b600061488382614920565b915061488e83614920565b9250828210156148a1576148a0614a5f565b5b828203905092915050565b60006148b782614900565b9050919050565b60008115159050919050565b60007fffffffff0000000000000000000000000000000000000000000000000000000082169050919050565b6000819050919050565b600073ffffffffffffffffffffffffffffffffffffffff82169050919050565b6000819050919050565b600069ffffffffffffffffffff82169050919050565b82818337600083830152505050565b60005b8381101561496d578082015181840152602081019050614952565b8381111561497c576000848401525b50505050565b6000600282049050600182168061499a57607f821691505b602082108114156149ae576149ad614abd565b5b50919050565b6149bd82614b1b565b810181811067ffffffffffffffff821117156149dc576149db614aec565b5b80604052505050565b60006149f082614920565b91507fffffffffffffffffffffffffffffffffffffffffffffffffffffffffffffffff821415614a2357614a22614a5f565b5b600182019050919050565b6000614a3982614920565b9150614a4483614920565b925082614a5457614a53614a8e565b5b828206905092915050565b7f4e487b7100000000000000000000000000000000000000000000000000000000600052601160045260246000fd5b7f4e487b7100000000000000000000000000000000000000000000000000000000600052601260045260246000fd5b7f4e487b7100000000000000000000000000000000000000000000000000000000600052602260045260246000fd5b7f4e487b7100000000000000000000000000000000000000000000000000000000600052604160045260246000fd5b6000601f19601f8301169050919050565b7f4552433732313a207472616e7366657220746f206e6f6e20455243373231526560008201527f63656976657220696d706c656d656e7465720000000000000000000000000000602082015250565b7f4552433732313a207472616e736665722066726f6d20696e636f72726563742060008201527f6f776e6572000000000000000000000000000000000000000000000000000000602082015250565b7f4552433732313a20746f6b656e20616c7265616479206d696e74656400000000600082015250565b7f4552433732313a207472616e7366657220746f20746865207a65726f2061646460008201527f7265737300000000000000000000000000000000000000000000000000000000602082015250565b7f4552433732313a20617070726f766520746f2063616c6c657200000000000000600082015250565b7f4552433732313a206f70657261746f7220717565727920666f72206e6f6e657860008201527f697374656e7420746f6b656e0000000000000000000000000000000000000000602082015250565b7f4552433732313a20617070726f76652063616c6c6572206973206e6f74206f7760008201527f6e6572206e6f7220617070726f76656420666f7220616c6c0000000000000000602082015250565b7f4552433732313a2062616c616e636520717565727920666f7220746865207a6560008201527f726f206164647265737300000000000000000000000000000000000000000000602082015250565b7f4552433732313a206f776e657220717565727920666f72206e6f6e657869737460008201527f656e7420746f6b656e0000000000000000000000000000000000000000000000602082015250565b7f45524337323155524953746f726167653a2055524920736574206f66206e6f6e60008201527f6578697374656e7420746f6b656e000000000000000000000000000000000000602082015250565b7f626c61636b6c6973746564207573657200000000000000000000000000000000600082015250565b7f6e6f7420636f6e7472616374206f776e65720000000000000000000000000000600082015250565b7f4552433732313a206d696e7420746f20746865207a65726f2061646472657373600082015250565b7f4e6f206d6f72652070617373657320617661696c61626c650000000000000000600082015250565b7f45524337323155524953746f726167653a2055524920717565727920666f722060008201527f6e6f6e6578697374656e7420746f6b656e000000000000000000000000000000602082015250565b7f4552433732313a20617070726f76656420717565727920666f72206e6f6e657860008201527f697374656e7420746f6b656e0000000000000000000000000000000000000000602082015250565b7f4552433732314d657461646174613a2055524920717565727920666f72206e6f60008201527f6e6578697374656e7420746f6b656e0000000000000000000000000000000000602082015250565b7f77726f6e6720616d6f756e742073656e74000000000000000000000000000000600082015250565b7f4552433732313a20617070726f76616c20746f2063757272656e74206f776e6560008201527f7200000000000000000000000000000000000000000000000000000000000000602082015250565b7f4552433732313a207472616e736665722063616c6c6572206973206e6f74206f60008201527f776e6572206e6f7220617070726f766564000000000000000000000000000000602082015250565b7f77726f6e672063617465676f7279000000000000000000000000000000000000600082015250565b7f4e6f206d6f7265206d696e742070617373657320746f2073656e640000000000600082015250565b6150a9816148ac565b81146150b457600080fd5b50565b6150c0816148be565b81146150cb57600080fd5b50565b6150d7816148ca565b81146150e257600080fd5b50565b6150ee816148f6565b81146150f957600080fd5b50565b61510581614920565b811461511057600080fd5b50565b61511c8161492a565b811461512757600080fd5b5056fea2646970667358221220bc68aa7cad798c0dc356fb0725bb26421d43fbf44ead6e50925fefc26a3b18b464736f6c6343000804003368747470733a2f2f676174657761792e70696e6174612e636c6f75642f697066732f516d61654d4256675256363768316f4c366d6d327037634e783635386d336d44687a337055624d6f6962784c5a3168747470733a2f2f676174657761792e70696e6174612e636c6f75642f697066732f516d55355864774c6b69417a33684757426335504c6858486a687333687150684c666a76616a754c524a3952503668747470733a2f2f676174657761792e70696e6174612e636c6f75642f697066732f516d626a664e6255683837586a54483270627438456152457757675843356331707341635369687253335979685a",
  "linkReferences": {},
  "deployedLinkReferences": {}
}